:020000040000FA
:20100000000004206D7E0000957E0000977E0000997E00009B7E00009D7E0000000000004E
:201020000000000000000000000000009F7E0000A17E000000000000A37E0000A57E000030
:201040009D9D00009D930000E9140100A77E0000A77E0000A77E0000399A0000A77E0000C1
:2010600041EB0000A77E0000A77E0000AD9E0000A77E0000AD9D0000A77E0000A77E0000F6
:20108000B9BE0000A77E0000A77E0000A77E0000A77E0000A77E0000A77E0000A77E0000D6
:2010A000A77E0000A77E0000A77E0000A77E0000A77E0000A77E0000000000000000000052
:2010C000A77E0000A77E0000A77E0000A77E0000A77E0000A77E0000A77E00009DB60000BA
:2010E000A77E0000A77E0000A77E00000000000000000000A77E000000000000A77E000037
:201100000000000000000000000000000000000000000000000000000000000000000000CF
:201120000000000000000000000000000000000000000000000000000000000000000000AF
:2011400000000000000000000000000000000000000000000000000000000000000000008F
:2011600000000000000000000000000000000000000000000000000000000000000000006F
:2011800000000000000000000000000000000000000000000000000000000000000000004F
:2011A00000000000000000000000000000000000000000000000000000000000000000002F
:2011C00000000000000000000000000000000000000000000000000000000000000000000F
:2011E0000000000000000000000000000000000000000000000000000000000000000000EF
:2012000001F0FF01102A2BDB10F0070F08D010F8013B013A8B422DD010F0070F42B3F6D194
:20122000F0B441EA012141EA014122F007047FF000070023F0E80256083C85EA010586EA41
:20124000010685FA47F5A3FA87F586FA47F6A5FA87F68EB9EED1F0BC01F0FF0102F007023C
:2012600032B110F8013B013A83EA010313B1F8D10020704701387047002D06BF354603389F
:20128000073815F0010F07D1013015F4807F02BF013015F4C03F0130F0BC0138704700BF63
:2012A000D0B5038804463BB15C2B0DD188290FD082290DD00120D0BD80211D4806F08EFA39
:2012C0005C2323800120D0BD002303800320D0BD04F04CFEE8B904F02DFE02460B4652EA15
:2012E000030116D010A7D7E90067D90141EA5261D0018F4208BF86420FD3002908BFB0F5C6
:201300007A7F0DD34FF47A72002314F005FB0146D3E708480BF040F9D2E74FF4F051CCE729
:201320000121CAE7AFF30080E733750000000000B01600207C01002010B5054C237833B909
:20134000044B13B10448AFF300800123237010BD4008002000000000A4C4010008B5034BAC
:201360001BB103490348AFF3008008BD0000000044080020A4C40100A3F5803A704700BF86
:20138000174B002B08BF134B9D46FFF7F5FF00218B460F461348144A121A14F06FFC0E4BDA
:2013A000002B00D098470D4B002B00D098470020002104000D000D48002802D00C48AFF38A
:2013C000008012F0D1FD2000290005F0D5FC12F0B7FD00BF00000800000000000000000031
:2013E00000000420F8030020FC3A0020000000000000000000B585B00346002101AA44F223
:201400000100CDE90111039300F004F805B05DF804FB00BF72B6094B1B68DB0700D500BE45
:20142000BFF34F8F0649074BCA6802F4E0621343CB60BFF34F8F00BFFDE700BFF0ED00E0E1
:2014400000ED00E00400FA050378052B02D0094B1B681847084BD3F88424D3F8803413F0C1
:20146000FF0FF4D1054BD2B2052A08BF1846014B1B6818475C08002000700240F0610100BB
:20148000014B02481B6818475C080020F4610100012803D0022809D020B17047054B0648D5
:2014A0001B681847034B05481B681847014B04481B6818475C080020E8610100E46101003F
:2014C000EC6101002DE9F04F87B0002504460F4690469946029500E0013562680123566860
:2014E0002146002202A8B0470028F5D18DF80600049065B3824683460AE09DF80630666889
:20150000023B7668B0479DF806309B445D451ED962680123566821460DF1060204A8B047BA
:2015200062680123566821460DF1070204A8B0479DF80730BB424FF00002214604A8DCD124
:20154000D04508D00AF1010A5FFA8AFAD5E7052007B0BDE8F08F109A9DF80630136089F896
:20156000003089F801706168023B4D6809F102022146A847002007B0BDE8F08FF0B505464F
:2015800083B03B4809F0B6FB044610B1204603B0F0BD384A3849394B14700C6048222146D2
:2015A00037481C6014F06AFB36482146482214F065FB002D54D095E80700334B83E807004F
:2015C000002847D0002007F0E3FF08B1852844D12E4D2B7A002B49D0013BDBB205F10C0227
:2015E0004FF0030E6E68274FDFF894C01EFB032E05F109046378EBB1A278611C1144013B38
:2016000051FA83F1224408E003F00F0307EBC30391421D60306858600CD012F8013B180620
:20162000F2D503F00F030CEBC30391421D6030685860F2D103347445DCD10B238DF804303A
:201640001248336801A99847044600289ED009F093FB9BE70E4A1A60B4E7FFF7CBFEB7E759
:20166000094B0B4A5D601D721A60ABE76E68E4E74914000079340020F8080020FC0800205A
:2016800068080020B00800205C08002020620100591A000010B509F089FC68B109F08EFC89
:2016A000044648B9064807F087FF034628B1FFF7A1FE2346184610BD0823184610BD00BFB4
:2016C000E061010009F062BB0AF060BA4FF0804303E0D3F83824D10707D5D3F8382492071E
:2016E000F7D5024B02481B68184770475C080020F861010000B5054B83B082221B688DF82C
:20170000042001A8984703B05DF804FB5C0800202DE9F043057A83B0002D5ED005F1FF3E09
:201720005FFA8EF300F10C024FF0030E00F10901334FDFF8D4C01EFB032E0C4666780022FC
:20174000964204EB020319D094F8028013F9089013F80830B9F1000F0BDB03F00F0307EB49
:20176000C3031B680132002BEAD0112003B0BDE8F08303F00F030CEBC303F2E70334A6454F
:20178000DCD100261E4FDFF880C0324602EB42020A445378EBB1002423460CE003F00F0316
:2017A00007EBC303186045682D685D6055780134E3B29D420CD99578134413F905E05B5D92
:2017C000BEF1000FEADA03F00F030CEBC303E9E7057A0136F2B29542D8D80A4A13681BB179
:2017E0001A681368002BFBD1106043680B228DF804201B6801A9984703B0BDE8F08300BF6E
:20180000B0080020F808002068080020024B1878003818BF0120704778340020030710B5E1
:20182000044604D52046BDE810400AF047B809F05FFD20460AF09AF82046BDE810400AF095
:201840003DB800BF0AF080BA014B1868704700BFF8080020F0B40E4B1F688FB13E7A96B17B
:2018600000231C463A4602E0DCB2A6420BD9557A854203F1010302F10302F5D101B10C70AD
:201880003846F0BC70473B681F68002FE6D1F7E7F8080020436811461B68184700F00F0373
:2018A000082B0AD802064CBF054A064A02EBC303186810B143681B6818471020704700BF3A
:2018C00068080020B008002038B5094B1C6864B1054602E023681C683CB1636829461B68E0
:2018E000204698470628F5D038BD062038BD00BFF808002038B50D46044609F0CBFB18B1AF
:20190000054B1B78022B01D0082038BD29462046BDE8384009F0CEBB7934002038B50D4648
:20192000044609F0B7FB18B1054B1B78022B01D0082038BD29462046BDE8384009F04CBCF8
:2019400079340020F8B543689B6805460C4616461BB19847062800D0F8BDEEB92B7AA342D7
:201960001CD9093504EB44042C44677897B133463A469A420BD9A378A2190136D05CFFF77E
:201980004DFFF3B2BB4205D262789A42F3D800231B78FFDE0020F8BD0720F8BD7378FFDEF5
:2019A00070B54368DB6805460C4603B198472B7AA3421AD9093504EB44042C4466789EB155
:2019C00000252B46324693420BD2A37862190135D05C0AF0B9F9EBB29E4205D96278934299
:2019E000F3D300231B78FFDE70BD00235B78FFDE43681B6903B118471846704770B50A4BBD
:201A00001D687DB12E7A4EB100242146013400222846FFF797FFE1B2B142F7D32B681D6828
:201A2000002DEFD170BD00BFF808002070B5094B1D6875B12E7A46B10024214601342846BC
:201A4000FFF7AEFFE1B2B142F8D32B681D68002DF0D170BDF808002070B503780446852BA5
:201A600000F2BF80DFE813F00002B201BE003A026602E300EA00BD00040117012A01BD00C5
:201A8000BD00BD00BD003D01BD00BD00BD00BD00BD00BD00BD00BD00BD00BD00BD00BD00F5
:201AA000BD00BD00BD00BD00BD00BD00BD00BD00BD00BD00BD00BD00BD00BD00BD00BD0056
:201AC000BD00BD00BD00BD00BD00BD00BD00BD00BD00BD00BD00BD00BD00BD00BD00BD0036
:201AE000BD00BD00BD00BD00BD00BD00BD00BD00BD00BD00BD00BD00BD00BD00BD00BD0016
:201B0000BD00BD00BD00BD00BD00BD00BD00BD00BD00BD00BD00BD00BD00BD00BD00BD00F5
:201B2000BD00BD00BD00BD00BD00BD00BD00BD00BD00BD00BD00BD00BD00BD00BD00BD00D5
:201B4000BD00BD00BD00BD00BD00BD00BD00BD00BD00BD00BD00BD00BD00BD00BD00BD00B5
:201B6000BD00BD00BD00BD005101860060011C02E301E3008C4B8D49D3E9000290478C4B3A
:201B80001C684CB1894D636820461B682946984723681C68002CF6D1864C63680BB10D2064
:201BA0009847FFF743FF01F075FB834B1B68002B00F0FD810120814D09F0C6F92A78931EC9
:201BC000DBB2062B00F215827D49CB5C13B107F0C5FC2A78022A40F00C8209F031FA012381
:201BE0002B7070BD754D2A78931EDBB2062B00F2CD817349CB5C13B107F0B0FC2A78022AF2
:201C000040F0C48109F01CFA6A4B5B6803222A700BB102209847664B1D6845B16B682846DF
:201C20001B68214698472B681D68002DF6D15E4B2146D3E90002BDE87040104790F902309A
:201C40008278002BB4BF5F4B574B02F00F0203EBC203D3E90002214690470028C1D0A0781D
:201C60000207BED00307BCD4BDE8704009F012BB504B5B680BB1082098474D4B1D68002DAD
:201C8000AFD06B6828461B68214698472B681D68002DF6D1A5E7474B5B680BB1092098470A
:201CA000434B1D68002D9CD06B6828461B68214698472B681D68002DF6D192E73D4B5B689E
:201CC0000BB10A2098473A4B1D68002D89D06B6828461B68214698472B681D68002DF6D199
:201CE0007FE7344B5B680BB10F209847304B1D68002D3FF476AF6B6828461B6821469847E3
:201D00002B681D68002DF6D16BE72C4C2378062B00F04F8103F0FD03052B7FF462AF09F0C1
:201D200099F90223237070BD244DFFF77FFE09F021FF2A78931EDBB2062B31D82049CB5C85
:201D400013B107F00BFC2A78022A29D109F078F9174B1C6800232B704CB11B4E6368204654
:201D60001B683146984723681C68002CF6D10E4B1549D3E9000290470E4B5B680BB10E2036
:201D800098472B78023BDBB2062B3FF62AAF0C4AD35C002B3FF425AFBDE8704007F0DEBB1C
:201DA000082AD5D1D2E700BFB0080020FC610100F80800205C080020FC0800207934002008
:201DC000D861010068080020006201009C4DFFF72DFE01F055FA2A78931EDBB2062B00F289
:201DE000D9809849CB5C002B00F0D480022A03D0082A01D009F02EF9934B5B6802222A7092
:201E00000BB101209847914B2146D3E9000290478F4B1D68002D3FF4E4AE6B6828461B6819
:201E2000214698472B681D68002DF6D170BD844D2B78032B00F0C68009F0CAF800283FF435
:201E4000D0AE2A78931EDBB2062B40F2EB80814807F056FB2A78022A01D0082A01D109F0A9
:201E6000EFF806232B7070BD754B1B78032B00F0A580082B00F0A280734B5B680BB1002052
:201E80009847754B1D68002D3FF4ABAE6B6828461B68214698472B685D68002DF6D170BDE2
:201EA000674D2B78032B7FF49CAE09F09FFE00283FF497AE2A78931EDBB2062B00F2BB806C
:201EC0006049CB5C13B107F049FB2A78022A40F0B28009F0B5F804232B7070BD584D2A7827
:201EE000082A5CD0931EDBB2062B00F286805549CB5C002B00F08180022A00F087800523F1
:201F00002B70514B5B680BB1032098474F4B2146D3E9000290474E4B1D68002D3FF461AEE6
:201F20006B6828461B68214698472B681D68002DF6D170BD444B5B680BB103209847434BC0
:201F40004649D3E900029047414B1C684CB1434D636820461B682946984723681C68002C83
:201F6000F6D1374D2B78062B1ED0082B0BD09A1ED2B2062A4DD833498A5C002A49D0022BE3
:201F800001D009F067F802232B7070BD082A7FF43BAE37E62F4807F0B3FA2A7826E7022391
:201FA0002B7009F061F8ACE707232B7070BD207A01E609F04FF80823237070BD2848FFF79D
:201FC0004BFD59E709F012FE00283FF435AF2A78931EDBB2062B2BD81A49CB5C13B107F0D8
:201FE000BDFA2A78022A23D109F02AF804232B7022E7082A7FF4F3ADEFE5164807F080FA9A
:202000002B78022B02D0082B7FF479AF09F018F875E7104807F074FA2B78022BB3D0082BA8
:20202000B1D0AEE70749CB5C002B7FF414AF0EE7082ADBD1D8E7082A7FF44DAF49E700BF90
:2020400079340020D86101005C080020B0080020F808002008000020FC0800200862010046
:20206000046201004360CA699A4205D38A6902600B67CB610020704701F1280202608B6735
:2020800000207047F0B504680E7A002C00F07284A4F212347C2C00F2C1827C2C00F2BE822B
:2020A000DFE814F074020003DE02CF02C7022A0307032303BC02BC02BC02BC02BC02BC0291
:2020C0006702D702BC02BC02BC02BC02CC010F03E602BC02BC02BC02F401EE038C03BC0292
:2020E000BC02BC02BC02FF00CB034803BC02BC02BC02BC02BC02BC026402BC02BC02BC027A
:20210000BC0219019B039303AC035703BC02BC02C3038403B40339035F03BC02BC024103CC
:20212000DB015003ED00BC02BC023203DB00F503BD00BC03BC02BC02BC02BC02BC02BC020F
:20214000BC02BC02BC02BC02BC02BC02BC02BC02BC02BC02BC02BC02BC02C900D303BC027C
:20216000BC02BC026703BC02BC02BC02BC02AC00BC02BC02BC02BC02AC00BC02BC02BC02F7
:20218000BC02BC02BC027D00C002BC02BC02BC02BC02B800BC02BC02BC02BC02B800012441
:2021A0000025002A00F0CD8307795755A3424FF00005057140F27C83171901343D70B04D85
:2021C0000F7D2D682D78AF4200F0B0838F7DAF4209D10025A342057140F24D85254601342A
:2021E0000AB107795755DFF8A0C2A64F9CF800503F780135EDB28CF800507BE101250024E0
:202200000AB1077917554024AB42047140F289836C1CC6E701240025002AE2D1E3E70124C8
:202220000025002A40F031848D7D0571A34240F262830134FFE001250024002A00F03D83B6
:2022400007791755AB424FF00504047140F27E83274602EB050C6C1CFDE201250024002A6F
:2022600040F011840624AB42047140F23F8301350C7D0471AB4240F291836C1CD4E7012549
:202280000024002A40F003840524AB42047140F228836C1C2425A342057140F27583651CFA
:2022A000E0E701240025002A00F0FA83077957554FF0000CA34280F804C040F29084651C17
:2022C0000027AB4202F804C0077140F2F383541901352770F3E001250024002A00F0EF8329
:2022E00007791755AB424FF02404047140F2C183274605F1010C002463455755047140F224
:20230000A98325460CF101071024BB4202F80C50047140F29083254607F1010C01246345A3
:20232000D555047140F2788325460CEB04070524BB4202F80C50047140F25D83254607F1FE
:20234000010C24246345D555047140F24A8325460CF101070124BB4202F80C50047140F253
:202360003683254607EB040C03246345D555047140F228830CF1010702F80C40BB4291F81B
:2023800016C080F804C040F218837C1C0425A34202F807C0057140F20B8302EB040C2F464F
:2023A00001342425A3428CF80070057140F2FB822F46651C1755AB424FF00204047140F266
:2023C0009F82274602EB050C6C1C0225A3428CF80070057140F2DD822F46651C1755AB4293
:2023E0004FF00504047140F27C82274602EB050C6C1C2425A3428CF80070057140F2C482ED
:202400002F46651C1755AB424FF00604047140F26D82571901353C700F7D0771AB4240F219
:20242000BD826C1C5755A3428D7D057140F26382171901343D70124D2D6851E0012700242A
:20244000002A00F04082057915559F424FF00004047180F0F5827D1C39E101250024002A11
:2024600040F017830224AB42047140F249826C1C0225A342057140F28C82651C04E700BF98
:20248000000900207A3400207C34002001240025002A00F09883077957559C424FF00205A6
:2024A000057180F05883671C1555BB424C7E047140F2E48202EB070C7D1C8CF80040002419
:2024C000AB42047140F221826C1C0AB107795755C64D91F814C02D682F78BC4500F01A821D
:2024E000DFF810E3DFF810C36F788EF8007000258CF80050BD423FD3BD4F3D780135EDB2EB
:202500003D70AE4240F2CA810925A342057140F25583651C002A00F0128307791755AB4205
:202520004FF00404047140F2B682274602EB050C6C1C8CF800700F7AAD4D2D78AF4240F243
:20254000AC8305EB450501F10907DFF8A0C217F805E080F804E03D449C42CCF8005080F0A4
:202560007E82671C002A7FF46EAFACE101240025ABE701250024CDE70725A342057140F2FE
:202580009281651C002A7FF45BAE96E1002A00F0EB8204791470012B4FF00B04047140F2E1
:2025A000238302250127D455AB420F7D077140F25B8205F1010C022463455755047140F2D9
:2025C000448225460CF101070224BB4202F80C50047140F22B82254607F1010C02246345BA
:2025E000D555047140F213820CF1010702F80C40BB4291F819C080F804C040F2F7817C1C4D
:202600000025A34202F807C0057140F2E581171901343D70764F00253D7072E70023036059
:202620001846F0BD002A00F0F282057917460124C4E5002A00F0F28205794FF0010C0027D9
:20264000CCE7002A00F0EC82057901274FF0000CBAE7002A00F0FF8207799446012468E744
:20266000002A00F0D78207794FF0010C0025A2E75E4C002A00F0E682077924689446012535
:202680008CF8007024780F7DA74200F0B9818F7DA7427FF414AF0A249D42047180F0F58277
:2026A0006C1C00E6002A00F0D28204790125002779E7002A00F0B08290F804C00124002730
:2026C0009EE7002A00F0C182047901250027DFF81CC1D455DCF80040AB426778077140F2E7
:2026E000A08102EB050C0135CAE7002A00F0B1820579174601248CE7002A00F08482047977
:2027000001274FF0000C71E7002A00F0A7820779944601246DE6002A00F08E82047901270A
:202720004FF0000C28E6002A00F0A18207799446012436E6002A00F000821446077927705B
:202740000125BCE6002A00F08E820779944601243BE6002A00F07282057901274FF0000CE8
:20276000E5E5002A00F0608290F804C0012400270CE61E4C0125276800241AB190F804C0AF
:2027800002F804C03C780F7DA74200F0E9808F7DA7427FF438AD0224AB42047140F2708200
:2027A0002C460135002A7FF42CAD2CE5002A00F04782057901274FF0000CCBE5002A00F04C
:2027C000BC8104799446012577E6002A00F01682057901274FF0000C96E5002A00F04582E3
:2027E00007794FF0010C002585E500BF000900207B3400207A3400207C340020002A00F00F
:20280000308205794FF0010C002787E5002A00F00F8205794FF0010C0027A5E5002A00F069
:20282000F48105791746012404E6002A00F0218205794FF0010C002783E5002A00F0F68192
:2028400090F804C0012500243AE5002A00F0EA810779944601248CF80070C14FC14D3F6806
:202860002D7897F801C0AC4540F2148297F802C03D44A34215F80C5005716CD9651C7CE7EB
:20288000002A00F0D7810579012700240CE6002A00F0B681047917460125BCE540F299331A
:2028A00003600120F0BD40F26D3303600120F0BD4FF4617303600120F0BD0524AB42047111
:2028C00044D96C1CC9E79F42027180F0B9807D1CA34C2468AB426778077140F2A2800135C4
:2028E000D0E640F2553303600120F0BD40F2573303600120F0BD40F2593303600120F0BD5B
:2029000040F2513303600120F0BD4FF44F7303600120F0BD0525A342057140F21781651CCA
:20292000DBE440F2833303600120F0BD0D6AA3422D7805713FF652AC40F2893303600120A3
:20294000F0BDA3420271B3D9013438E440F26E3303600120F0BD40F2723303600120F0BD89
:202960000324AB4204713FF61BAF40F2773303600120F0BD08240471002B7FF407AE40F29C
:20298000123303600120F0BD40F2563303600120F0BD40F2523303600120F0BD4FF45673E1
:2029A00003600120F0BD4FF4547303600120F0BD40F24F3303600120F0BD4FF4537303605A
:2029C0000120F0BD40F24B3303600120F0BD40F24A3303600120F0BD40F219330360012066
:2029E000F0BD40F2493303600120F0BD4FF4467303600120F0BD4FF4527303600120F0BDE5
:202A000002249D42047180F0F4806C1C40E540F2173303600120F0BD40F2453303600120D0
:202A2000F0BD4FF44A7303600120F0BD40F2163303600120F0BD4FF4517303600120F0BDD4
:202A400040F2273303600120F0BD40F2153303600120F0BD40F2433303600120F0BD40F203
:202A6000263303600120F0BD4FF4457303600120F0BD40F2423303600120F0BD40F22E3335
:202A800003600120F0BD0779BCE40779CAE40779A4E407798EE440F2213303600120F0BD06
:202AA000A342027140F29B80013400259C420571C0F0938040F2353303600120F0BD2424ED
:202AC000AB420471D5D96C1C00259C420571C1D2013410259C420571ADD2013401259C42DC
:202AE000057199D22C4405259C42057183D2013424259C420571BFF474AF013401259C42D1
:202B00000571BFF464AF2C4403259C420571BFF459AF01348D7D05719C42BFF44EAF01345A
:202B20000425A34205717FF643AF01342425A34205717FF638AF651C94E40125BFE404248B
:202B4000AB420471A7D90F7A6C1CF5E440F2413303600120F0BD40F22D3303600120F0BD0F
:202B6000000900207C3400200B24012B04713BD902240D7D05719C42BFF476AF0134022540
:202B8000A34205717FF661AF013402259C420571BFF44CAF01340225A34205717FF637AFE5
:202BA00001344D7E05719C42BFF420AF013400259C420571BFF410AF01342BE54FF44873DC
:202BC00003600120F0BD02259C420571C3D201344D7E05719C42BFF451AF651C6FE44FF496
:202BE0004D7303600120F0BD40F2133303600120F0BD4FF44B7303600120F0BD012468E795
:202C00000125FFF735BB0124CBE7012413E40124FFF7D5BA0124B2E70124C8E70124BAE7B3
:202C20000124B2E7012418E6012479E701243CE7012469E70124CBE701246BE7012452E7C5
:202C400001245BE7246801251CE5012540E601248FE70124DEE4374601246DE40124FFF77E
:202C600019BB01243AE7012402E401242CE701245CE701243CE740F28E3303600120F0BD23
:202C80004FF45F7303600120F0BD40F2333303600120F0BD00231B78FFDE024A00231360B0
:202CA0001B78FFDE0009002070B90B681A7B202A01D0062070471A4652F80E1F9961918868
:202CC00092799A7799837047032070474360CA699A4210D38A6910B40260C8690C6FC01AF7
:202CE0001C441A44C86100380C6718BF01205DF8044B8A61704701F12802026000208B6774
:202D0000704700BF2DE9F0470B7888B00D4606460E2B14D8DFE803F008180808130D28132C
:202D200013181308080808000024204608B0BDE8F0874B78DA0930D15B09012B4CD006245A
:202D4000204608B0BDE8F0870368002403F134022046C3E91E44C3E920445A671C845C62DD
:202D6000DC6208B0BDE8F087027A8B78002A00F06581817A0930002900F05E81F17A415C8E
:202D80009942D1D01B061ED4EF7807F0FD03012BCAD0002F65D00324C7E713F0600FC3F31F
:202DA000411200F09180012AC9D18B78212BC6D1B1F80720072AC2D10168681C183100F05A
:202DC00073FA0446B1E7EC78002C00F09D80032C14BF03240024A8E78B780768202B00F07E
:202DE0009B80222BABD1B1F80730002BA7D1B1F8035097F820303D8405F0010203F00103E1
:202E00009342154690D0C3691BB1C2F10301C9B29847002D88D1337A012B40F20B81737B0E
:202E200006F10C04002B00F00381B37BE05C08F007FF337A012B40F2FD80737B012B40F2B0
:202E4000F780B37B23442C46587808F0F9FE07F13403C7E91E55C7E920557D62FD627B679E
:202E600063E73568012A05F10C0140F2DF80727B012A06F10C0340F2D7800691B27B704988
:202E800005911344AC6A93F80180002C60D1EA6FEB6AAC67C5E91F42002B00F0B480296B13
:202EA0001846002205F1240383E803004046EA6205A9FEF733FD0446F369002B3FF435AF7A
:202EC00030460021984730E703F01F03012B7FF436AF8C78062C7FF432AF05A8039200F010
:202EE000D5FC03AA00920746EA78297930463B46FEF7E8FA05283FF418AF039A3946681CDC
:202F000000F0D2F9044610E7F369002B3FF40CAF30460121984708E7B1F80720072A7FF466
:202F20000EAF3B73B1F80730DBB27B7300200E37CDE90573079000F08BFF002005A9FEF764
:202F4000D9FC0446002867D0002000F089FFECE6D5F88490686A4C4528BF4C4605F1340A98
:202F60002246514612F062FEE86FEA6AEF67A9EB04030AEB04010444C5E91D13C5F88040B7
:202F8000002A43D005F12C0797E8030005F12404002284E80300EA62002B3BD091461BE046
:202FA000696F686A12F042FED5E91D32A96AC5F880100B44521AC5E91D32F36913B10021BF
:202FC00030469847EB6A13B397E8030084E80300AB6FC5F82C90EBB1AA6A9342E0D2696FEE
:202FE000686A1A4612F022FED5E90932A96FE967521A0B44C5E9093253B1404605A9FEF74B
:203000008DFC044658E700236B6255E700236B62002451E76B6AEFE70A4B049603A903934A
:2030200000F020FC04468FE73B78FFDE7B78FFDE2B78FFDE6B78FFDE0B78FFDE5378FFDE1C
:20304000CD2C0000A92C000010B503681C8CE40784B015D50B46017A012916D9417B00F12F
:203060000C0481B1817B605C91060CBF0124002401A9CDE901320394FEF73CFC04B010BDD3
:20308000082004B010BD0B78FFDE00235B78FFDE0368D3F880007047F0B50468238CDB0745
:2030A00083B022D50546002016460F4600F0D0FEA26F42B9636AE3B11124002000F0D0FE8C
:2030C000204603B0F0BD964228BF1646616F3246384612F0ABFDD4E91D239B1B3244C4E9C9
:2030E0001D23C4F880600024E7E70824204603B0F0BDC4E909762A7A012A12D9697B01291C
:2031000005F10C020FD9AB7B0849009113440C34587801946946FEF701FC041E08BF92247F
:20312000CBE75B78FFDE1B78FFDE00BF65200000002070472DE9F04F4B6885B0CDE90002AD
:203140000C46002B71D008F0A1F8E568019B9D4228BF1D468146002D7CD04FF0000A5646E9
:20316000D3464FF00108D4E90113AB421F4628BF2F46E9B13A4609EB060012F057FDD4E948
:203180000223D21BDB1BC4E90223C4F804B0ED1B3E442AB3002B08BF4FF00008002DE2D165
:2031A000009BC3F800905E60404605B0BDE8F08FABB120463B4650F8101B4A68D2F804A036
:2031C00009EB0602D047D4E90223D21BDB1BC4E90223ED1B3E445AB14FF0010ADAE7E3685A
:2031E000BAF1000F04D15BB99846002DBBD1D7E722681268126822604FF0010A002BF3D09F
:203200002168F1B1CDF808B003E0A36821680133A3604B6800225F6802A80123B8470028C7
:20322000F3D12061002D9ED1BAE70B681B681B68002B88D18B68002B85D1036043609846B7
:20324000B2E76160002EABD0019BB34288BF4FF00008A5E72E464FF00108A1E7054B0528FF
:20326000187004D0044A137823F0020313700348FEF7F2BB7D3400207E340020306201005B
:2032800008B50020FEF7CAFABDE808408020FEF7C5BA00BF08B50020FEF7D4FABDE808404B
:2032A0008020FEF7CFBA00BF70B5C38893421E4628BF1646934284B00D4612D800240020BB
:2032C0000394CDE9015600F0C3FD01A98020FEF711FB044688B1002000F0C2FD204604B0E3
:2032E00070BD8020144607F0C5FEB4FBF0F202FB1044B4FA84F46409E1E708F0A1F8802877
:203300000BD1094A094B92E8030083E80300002000F0A6FD204604B070BD002000F0A0FD98
:203320001024204604B070BD68620100280900202DE9F04F0B780E2B89B018D8F3B1013BDC
:203340000D2B1BD8DFE803F01F0E281A354C1A1A1A1A0E666F07B24B1B78012B02D0012097
:20336000FFF77CFF0024204609B0BDE8F08F852B04D1AB4B1B78032B00F0408106242046F8
:2033800009B0BDE8F08FA64B1B78032BF6D00320FFF764FF0624E6E7A24806F035F8002830
:2033A000E0D0A14B01221A60BFF36F8FBFF34F8FD8E705230DF115008DF8143007F0A8FF33
:2033C0009DF81530994E002203F01F043260032C00F2B980DFE814F0E800B90099008D0076
:2033E000C87803280D46C9D0904E3368002B00F003810022716832609847044600287ED131
:203400003368002B00F00581AB78002BAAD107F0A1FFA8E7824B1B78002BA3D00020FFF76D
:203420001DFF00249FE74FF08043D3F8383413F0010F7B4B1B7806D0022B93D00220FFF7A3
:203440000DFF00248FE7012B89D18BE7BDF81B30002B00F0D880092B28BF09239946FEF740
:20346000F3F90546002800F0DB81BB464FF0090ACDF80CB04FF0000801E008F101086A68D1
:20348000012357682946002203A8B8470028F4D12A682B7A15681C44C244E4B2002DE7D18C
:2034A000634D644928464A4612F0C0FB2C71A5F802A0FEF7ABF918B1EB7943F02003EB71A0
:2034C000FEF7C2F95C4BBDF81B2018600020C3E90159DA6000F0BCFC58498020FEF71EFAD7
:2034E0000446002800F09F81002000F0B9FC062C05D105A8FEF7E8F90446002C73D007F04A
:2035000095FF204609B0BDE8F08F9DF81900020707D005A9FEF7C2F906280446EDD19DF81D
:20352000153013F0600F0ED19DF816303C4A9DF819401278012B00F0B980032B00F0A68083
:20354000002B00F0C6800624D9E79DF8190003A9FEF780F90546002859D09DF80C1005AA5C
:20356000FEF798F906280446C7D19DF8152012F0600FC4D12A4B9DF80C101B78D20940F021
:2035800014819DF816200B2AB9D1052B40F0B280BDF81730FF2B00F2FC809DF817202846AC
:2035A000FEF7D0F90446A8E713F0600FC3F341179FD1DB0948D19DF81630032B00F09C8072
:2035C000092B00F0A880012B93D1BDF81730012B8FD1FEF71BF9002800F0D980184A137820
:2035E00023F00203137033686BB107F029FF044600287FF4B7AE0AE70E2480E70420FFF76C
:203600002DFE0624AFE607F007FF0024ABE6102475E70C4B1B68082B33D007F0FDFEA2E6F4
:203620007D340020300900205C700240280900203409002034620100100900207062010001
:203640007E340020300100109DF81620062A00F08780082A73D0002A7FF44BAF7B497C4BCE
:2036600009781A80890744BF02221A7078490DF115000222FFF718FE0446062C7FF43DAF0F
:2036800037E7744B1B68002BC7D16BE625073FF55AAFBDF81730002B7FF455AF052A01D0AF
:2036A000200727D1204607F0F5FD9CE721073FF54AAFBDF81730002B7FF445AF052A01D036
:2036C000230717D1204607F013FE204608F04EF989E7052A01D027070CD1204607F0E6FD0A
:2036E0005B49034602220DF115000B80FFF7DCFD044602E7082402E7BDF81730012B7FF469
:20370000F8AEFEF783F8002841D0504A137843F00203137067E7504C2378043B012BE9D8C9
:203720009DF81730BBB3012B33D1FEF767F92378052B3FF458AF0520FFF790FD53E7464A43
:203740001278052A47D0042A7FF4D3AE404B1F703F490DF115000122FFF7A6FD04468CE749
:203760009DF81830022B3FF471AE032B36D0012B7FF4BFAEBDF81B30002B3FF444AF3749DC
:203780000DF115001222FFF78FFD044675E70F24B5E60724B3E6FEF749F92378042B3FF4F4
:2037A00022AF0420FFF75AFD1DE79DF816705FB30A2F7FF4A4AE052B9CD128460192FEF705
:2037C00017F92349019A03460B700DF11500FFF76BFD044691E61E4A1370B9E7BDF81B3051
:2037E000002B3FF410AFBDF819109DF8170000F01DFB014600283FF47CAE0A780DF11500B9
:20380000FFF752FD044638E7052B7FF473AF10490DF1150002220F80FFF746FD04466CE641
:203820004FF0090A3CE607F00BFE802808D10C4B93E8030086E80300204600F011FBD2E633
:20384000204600F00DFB102459E600BF7E34002034090020340100107D34002054620100DC
:203860006862010038B505460C4607F0E9FDA84207D194E80300044A82E803000023184699
:2038800038BD1023184638BD2809002008B1402303600148704700BF34090020F0B40D7A96
:2038A0000DB101F109050468002C59D06FF4AB763444142C00F24A81142C00F24781DFE8CF
:2038C00014F05400E700EE00F500FC000301090110011701450145011E0125012C0145014F
:2038E0003B0033012700390115003F0101250024002A40F0DB818A8AAB424FEA12220271C2
:2039000040F2338140F26D1303600120F0BC704701250024002A40F0CD814A8AAB424FEA3C
:203920001222027140F226816C1C8A8A0271A34240F27B81651CDEE701250024002A40F0FB
:20394000B7810A8AAB424FEA1222027140F217816C1C4A8A0271A34240F26C81651CDCE7ED
:2039600009240471002B00F0F680002A00F0A48104791470012B4FF00404047140F2F0804A
:203980000227012694559F422D78057180F089817E1C0024B342D555047140F27D8125468B
:2039A000771C0024BB429555047140F2708125467E1CFF24B342D555047140F26381254694
:2039C000771C0124BB429555047140F2568125463E190124B342D555047140F249812546E8
:2039E000371900249F429555047180F03C8125467E1C09249E42D555047180F02F812546AA
:203A0000771C21249F429555047180F0228126467C1C09259C42D655057180F01581161995
:203A2000013435700E7C0671A34240F20881651C16550E8A9D424FEA1626067180F09F802D
:203A400057196C1C3E708E7C06719C4280F0F280651C16554E8A9D424FEA1626067180F080
:203A6000898057196C1C3E700E7D0671A34240F2DC80651C1655898A9D424FEA1121017167
:203A800073D22A44117040F26D13036001203DE7002A00F0B38004790127002672E7002AFD
:203AA00000F0A58005790126002772E7002A00F0978005790127002673E7002A00F0898052
:203AC00005790126002774E7002A5DD005790127002676E7002A00F09E800579012600273B
:203AE00077E7002A00F0958005790127002678E7002A00F08C8005790126002779E7002A92
:203B000000F083800579012700267AE7002A00F08A800679012400277BE7002A00F0818019
:203B20000579164601247CE7002A78D006791746012487E7002A70D006791746012492E75E
:203B4000002A3FF4DFAE017911709CE7002303601846F0BC704740F2571303600120F8E7B7
:203B60004FF4AC7303600120F3E740F26B1303600120EEE740F2691303600120E9E740F248
:203B8000671303600120E4E701240122A342027173D914440122A342027169D914440022E1
:203BA0009C4202715FD2013409229C42027155D2013421229C4202714BD2013409229C4287
:203BC000027141D201340A8A0271A34237D9651CB7E60124FF229C42027153D20134D4E764
:203BE00001240022A342027151D90134F2E701240022A34202714FD90134F2E701242A7852
:203C00000271A3424DD90134F2E70124D1E70124CAE70124C3E70124BCE7012485E6012419
:203C200097E60124CFE70124C8E74FF4B573036001208EE74FF4B4730360012089E74FF453
:203C4000B3730360012084E74FF4B273036001207FE740F26313036001207AE74FF4B17309
:203C60000360012075E740F25F130360012070E74FF4AF73036001206BE740F25D130360A5
:203C8000012066E74FF4AE730360012061E740F25B13036001205CE74FF4AD730360012038
:203CA00057E740F259130360012052E70679E1E60679BDE60679CCE60422012B02717FF698
:203CC0004FAF02249BE700BF0B780E2B0BD8DFE803F0080808080A0C080A0A0A0A080808A8
:203CE00008000020704706207047F0B54B78DA0985B00C46064611D15B09012B02D0062080
:203D000005B0F0BD8C78002CF9D102681373036A002B3AD0214698472046F1E713F0600FBF
:203D2000C3F3411215D0012AE9D18B78072B07D0082BE4D1F268481CB169FFF7B5FADFE779
:203D4000B1F80720182ADAD1C169601CFFF7ACFAD6E703F01F03012BD1D18D78062DCED1ED
:203D600003A80292FFF792FD02AA00920746E278217930463B46FDF7A5FB0528BFD0029A1D
:203D80003946601CFFF790FABAE71846B8E700BF70B54FF0805286B0D2F8A830D2F8A420AF
:203DA00000926FEA83436FEA93430B4A0B4E9BB202A80D210CF0F4FA02AD002404E015F8A2
:203DC000013B06F8013B013402A811F0A4FF8442F5D306B070BD00BF8C620100A4340020D3
:203DE00038B5114B53F8204023780BB9A01C38BD0020FFF74BFD217891B12246C4F1010563
:203E00005319DCB2234620F8141012F8011F0029F6D101335B00DBB243F44073038038BD6B
:203E200040F20233FAE700BFF462010040B1052808D8054A105C28B1044B53F820300BB1EC
:203E4000FFF7CEBF002070470C630100F462010072B6024A13680133136070477409002057
:203E6000034A1368013B136003B962B6704700BF74090020F0B5058883B004460E4645B1EB
:203E800040F2F9139D422BD000230320238003B0F0BD1A4B1A48022739461F6008F026FABB
:203EA000184803F089FB184A1848152102F0A8F92B463A461648294602F05AFB15491448E1
:203EC00002F0F2FE1E221449114802F04BFF1249124808F00BFA124A40F2F91395842380C6
:203EE000104B0093084A0A4B0D48314601F03AFA0128C9D8002003B0F0BD00BF04150020FA
:203F00003C630100940A0020BC13002054630100501200206C630100786301009863010072
:203F2000280A00203D420000F0B5058883B004460E463DB1B5F5EE7F31D0002303202380BE
:203F400003B0F0BD1E4F1F483D6003F035FB1E4803F032FB39681D4808F0C8F91C4A1D485D
:203F6000152102F04DF92B4602221B48294602F0FFFA1A49184802F097FE1F221849164837
:203F800002F0F0FE1649174808F0B0F916481F2108F0ACF9154A4FF4EE7395842380144B89
:203FA00000930B4A0C4B1148314601F0DBF9012802D8002003B0F0BD0E4808F0FDFABCE7C2
:203FC0000415002008150020940A0020B8630100A813002054630100A41100206C63010059
:203FE000F46301009863010014640100FC0900203D4200003464010070B5058882B0044689
:204000000E4645B140F213239D422AD000230320238002B070BD224B22480121196008F0E3
:2040200065F9214803F0C8FA204A2148152102F0E7F82B4602221F48294602F099FA1E49D3
:204040001C4802F031FE1E221C491A4802F08AFE1A491B4808F04AF91A4A40F21323958474
:204060002380194B0093114A124B1648314601F079F9012802D8002002B070BD134808F061
:204080009BFA134B134A1B68009313491348002303F04AFA3C21124808F028F9B6E700BF7D
:2040A0000415002070640100940A0020D013002054630100FC1200206C630100A86401006E
:2040C00098630100540A00203D420000C8640100E43500203142000000E0A501081500204B
:2040E000FC6401002DE9F0410388B3F5D97FC2B004460F4645D040F2BB12934263D02BB184
:2041000000232380032042B0BDE8F081344A3549354808F0EBF8354808F04EFA082003F082
:204120005DFF334B93F80080B8F1000FE8D1314A3148324E152102F063F84346022230480D
:20414000414602F015FA2F492D4802F0ADFD0FCE02AD0FC50FCE0FC50FCE0FC596E8070007
:2041600085E807003B2202A9254802F0FBFD264802A908F0BBF8254A4FF4D973A2F824806C
:204180002380234B00931B4A1D4B2048394601F0E9F8012822D9164B1B78002BB0D11D4BC9
:2041A0001D4819680139196008F0A0F81B4808F003FA1B484FF4706103F010FB40F2BB1309
:2041C000238001209FE7164BDB681BB1012042B0BDE8F081064B93F80080A5E7002092E77B
:2041E0003C6501004065010048650100586501007F340020B80B00205463010080650100B7
:20420000F810002074650100BC650100D00900200547000040000020E4650100186601000C
:20422000E41300200148002108F004B9200000200148002108F0FEB83000002000B583B0B8
:20424000002301A9019302F081FD10B903B05DF804FB034808F0B0F903B05DF804FB00BF0B
:204260005866010030B52DED028B97B000256946009502F06BFD0446384808F09DF91CB9BC
:2042800017B0BDEC028B30BD2146009A344808F02DF80099224606A811F0C8FC16AB1C4405
:2042A000304904F8405C06A811F04FFD002851D001AA2D4906300FF0E9FE2C4801A908F056
:2042C00015F82B4B019A9A42DAD1BDF80830722BD6D1284906A811F038FD0028D0D0264C79
:2042E00026499FED278A224606300FF0CFFE94ED007A244A24492548C7EE087AC4ED007A03
:2043000007F0F4FF206811F0AFFA02460B46204807F0ECFF174906A811F017FD0028AFD0D4
:204320001C4C1649224606300FF0B0FE94ED007A144A15491548C7EE087AC4ED007A07F0FE
:20434000D5FF206811F090FA02460B46124807F0CDFF95E7114808F02FF991E7806601006C
:2043600090660100B0660100B8660100BC660100736F6C6100670100F01000200867010046
:204380000000C8423C65010040650100486501000C670100900A002024670100E06601001C
:2043A000F0B5C3B00E4600256946CDE9005502F0CDFC3D4A3D4904463D4807F097FF3D4809
:2043C00008F0FAF8384A3949394807F08FFF2146009A394807F08AFF0099002935D0002CF4
:2043E00033D0FF2C23D802AF3846224611F01EFC32493D55384611F0A8FC40B13049053013
:2044000001AA0FF043FE01992E4807F06FFF019902292CD039B3012938D12B48002108F0D0
:2044200009F83046442102F01BFC43B0F0BD27491D4A1F4807F05AFF254808F0BDF83046D9
:20444000802102F00DFC43B0F0BD3046802102F007FC154A1D49164807F048FF1D4808F056
:20446000ABF843B0F0BD1C4807F0E4FFD9E71B49384611F06AFC20B1194A114905300FF0F0
:2044800005FE1848002107F0D5FFCAE7064A0F49074807F02BFF0199134807F027FF30467C
:2044A000802102F0DDFBCEE73C65010040650100486501003C67010054670100946701008A
:2044C0009C670100A067010010000020646701007C6701006867010030000020B0660100B9
:2044E0002815002020000020B46701002DE9F04385B00D46002603A9039602F027FC644905
:20450000644A0446644807F0F1FE644808F054F80399002900F0AC80002C00F0A980DFF824
:20452000E091D9F8000000EB0408B8F5807F00F290805B4F2246384411F078FB594907F8F1
:2045400008603846C9F8008011F0FFFB002879D0504A4F49504807F0C9FE3946524807F030
:20456000C5FE5049384611F0F0FB00B106704F494B4811F0EAFB20B14D4A4E4905300FF00A
:2045800085FD4D49464811F0E0FB20B14B4A494905300FF07BFD4A49414811F0D6FB20B136
:2045A000484A444905300FF071FD47493C4811F0CCFB20B1454A3F4905300FF067FD444951
:2045C000374811F0C2FB20B1424A434906300FF05DFD4249324811F0B8FB20B1404A3E498B
:2045E00006300FF053FD2B4A29492B4807F07EFE3648344B0068314A2D4900901B68126886
:204600000968384807F072FE224A2149224807F06DFE3049344807F069FE1E4A1C491E481A
:2046200007F064FE2E49314807F060FE304B1C4801244FF4807200211C7011F01FFB0023B8
:20464000C9F800302846442102F00AFB05B0BDE8F083104A2749104807F048FE264807F00E
:20466000ABFF2846802102F0FBFA05B0BDE8F0832846802102F0F4FA064A1E49064807F0E2
:2046800035FE1E4807F098FF05B0BDE8F08300BF406501003C65010048650100D467010035
:2046A000B80A0020EC6701002068010040680100DC0F00209C67010048680100D00B0020D7
:2046C00050680100B40A002058680100CC0B002094670100081400206068010068680100B9
:2046E000F40F0020706801008C6801009C6801008034002064670100F467010068670100F8
:20470000F410002030B583B010B3002401A9019402F01CFB80B9174C174D2368174A1849E1
:2047200018480133236001232B7007F0DFFD164807F042FF03B030BD104A1149114807F096
:20474000D5FD124807F038FF0B4B1C7003B030BD0A4A0F4904460B4807F0C8FD0D4807F02C
:204760002BFF044A044913680C700133136003B030BD00BFD40F00207F3400203C650100FF
:204780004065010048650100DC680100C068010064670100AC680100F0B5384A384939484D
:2047A000394C83B007F0A2FD384807F005FF236801333B2B12DC364D364E374F23602F4A94
:2047C0002F49304807F092FD3B680093226833682968324807F08AFD03B0F0BD2C4D30492D
:2047E0002A682C4E2C4F013281FB0230D317C3EBA00303EB4303A2EBC30300222B60226060
:20480000002BDCD133683A6801330C2A336014D841F2AA50D040C0070FD51F2BCFDD81FB40
:204820000231D317C3EB610101EB4101A2EB81010131012339603360C1E722F002010429A2
:204840000AD0092908D0022AB9D11C2BB7DD0122032332603B60B2E71E2BB0DD104BD117BB
:2048600083FB0203C1EB630101EB4101A2EB8102013201233A603360A1E700BF3C650100FA
:204880004065010048650100D00B0020F4680100DC0F0020B40A0020CC0B0020186901000A
:2048A000ABAAAA2A38B5058804465DB140F261139D4225D11D4BDB6833B340F261132380A8
:2048C000012038BD1A4A1B491B4807F00FFD1B4807F072FE1A48294607F0ACFD19491A4895
:2048E00001F028F819491A4801F024F80F484FF4F05102F073FF40F2611323800120E0E766
:2049000000230380032038BD094A0A490A4807F0EDFC104807F050FE0F4B1B781BB9034858
:2049200002F066FFC9E7FFF737FFF8E7800A00203C65010040650100486501005469010007
:204940007C0000207C6901008C00002090690100B00000209C690100803400202DE9F84334
:204960002DED028B0C9F9DF828E0002F22DDDDF82C8016469C4602EB8709BD0000EB8104B1
:2049800000299FED4F7A0CDD02463346F2EC017AD3ED006A67EEA67A944237EE277A2B44EC
:2049A000F4D1FCEC017A043637EE877A4E45A8EC017AE5D1BEF1000F3CD0BEF1010F3ED080
:2049C000BEF1020F5ED0BEF1040F4DD0BEF1030F6ED10B9B73B3002F6CD09FED3A8A03EB95
:2049E00087071D46F3EC017AF4EE487AF1EE10FAC8BFB0EE678A9F42F4D1DFED318A0B9CF5
:204A0000B4EC010A30EE480A0EF0B4FEBC4278EE808AF5D1B0EE680A0EF0EAFE30EE088AF1
:204A200095ED000A30EE480A0EF0A4FEA5EC010ABD42F5D10020BDEC028BBDE8F883002FD4
:204A4000F8DD0B9B9FED1E7A03EB8707F3EC017AF5EEC07AF1EE10FA98BFF0EE477A9F4204
:204A600043ED017AF2D1E5E7002FE3DD0B9C04EB870794ED000A0EF021FEA4EC010AA742BD
:204A8000F7D1D7E7002FD5DD0B9CB7EE008A04EB870794ED000AB1EE400A0EF06BFE30EE63
:204AA000080AC8EE007AE4EC017AA742F1D1C1E70220C0E79FED020A0EF09AFE3846BAE700
:204AC00000000000000080FF70B54568954284B013DC089A0C46016891420EDC82687AB15C
:204AE000C6686EB1007C0090CDE90131204633462946FFF733FF04B070BD012004B070BD1C
:204B0000032004B070BD00BFD0F804C0BCF1000F37D02DE9F043D0F8088083B00446B8F1C4
:204B2000000F2AD0D0F80C90B9F1000F25D00668012E5EDDDCF8043093421AD106EB86063D
:204B40000CF11803276903EB860696464FF0FF3501E053F814EC53F8180C7545B8BF75465D
:204B6000854203F11403B8BF0546B342F1D1AF4209DA012003B0BDE8F083032003B0BDE8AF
:204B8000F08303207047009760464346FFF79CFF0028F3D12368022B1EDD09EB870501262B
:204BA0006368009706EB860003EB80003A464B464146FFF789FF0028E0D1002F07DD424624
:204BC0004B4653F8041B42F8041B9D42F9D1236801365A1EB242E3DC03EB83036068009718
:204BE0009B00143B18443A464B464146FFF76CFFC4E7022003B0BDE8F08300BFF8B5069FCD
:204C000003B31C46D0E9003603EB830306EB8303054653F8143C9F4201D00120F8BDFFF73E
:204C200073FF0028FAD1002FF8DD234604EB87070146EA680A440431126843F8042BBB4228
:204C4000F7D1F8BD0320F8BD2DE9F0432DED048B0588B5F5877F97B004460E462BD040F2BE
:204C600017139D4200F02F813DB100232380032017B0BDEC048BBDE8F083B24807F09CFC14
:204C8000B14811F048F8B14A0146AF4801F0B8FA2B460122AE48294601F06AFCAD49AC48C4
:204CA00002F002F8A849AC4807F020FBAB4A4FF4877395842380AA4DA54BA44AA7480095CA
:204CC000314600F04FFB012840F2F780A54811F022F8A54A0146A34801F092FA0023194629
:204CE0000122A24801F044FC9A49A04801F0DCFF9C499F4807F0FAFA9E4A002140F21713C3
:204D000091842380994B984A9A480095314600F029FB012840F2D1809748984A9849994BE1
:204D2000D0ED007AD2ED008A91ED008A93ED009A954E964D37682B681097F8EEE77AB8EE45
:204D4000C88AF8EEE88AB8EEC99A17EE900ACDED0C7ACDED117A15938DED0D8A8DED128AAD
:204D6000CDED0E8ACDED138A8DED0F9A8DED149A10F07AFD02460B463846CDE9082310F0D0
:204D800073FD8046894619EE100ACDE9068910F06BFD8046894618EE900ACDE9048910F0C8
:204DA00063FD8046894618EE100ACDE9028910F05BFDDDE90823CDE90001754807F096FA59
:204DC000119810F051FD02460B461598CDE9082310F04AFD804689461498CDE9068910F0E8
:204DE00043FD804689461398CDE9048910F03CFD804689461298CDE9028910F035FD0127DD
:204E0000DDE90823CDE90001624807F06FFA0BAB052211A960480097FFF7F0FE00970BABD9
:204E200005220CA9002850D15C48DDF82C80FFF7E5FE07464046002F66D110F015FD9DED7A
:204E40000B8A02460B46564807F050FA18EE100A10F00AFD02460B46524807F047FA07EEBE
:204E6000108AF0EE007A77EE277AF4EEC87AF1EE10FA08D596ED007AD5ED007AB4EEE77A14
:204E8000F1EE10FA54DC484D2968002938D0474807F092FB464A2B6812680133B3EB820F8F
:204EA0002B6021D0434B444A1B680093434800234FF4E13102F038FBD7E6002017B0BDECCF
:204EC000048BBDE8F083264D1CE73448FFF796FEF8B13B4B0022324807F008FA384B3148EF
:204EE000002207F003FACEE7364807F065FB3648002107F09FFA00232B6023800220B7E6D3
:204F0000324807F097FAC2E710F0AEFC02460B46E1E70B9D2A4B2248002207F0E7F92846ED
:204F200010F0A2FC02460B461E4807F0DFF9AAE71D4B27481F6007F03FFB2348394607F00C
:204F400079FA92E6C869010008140020F413002058140020146301000C6A010078090020B5
:204F600065420000F40F0020E00F002044100020346A0100A4090020CC0B0020DC0F002076
:204F8000B40A0020D00B0020F0100020900A0020606A0100906A010054000020680000209C
:204FA000BC6A0100D46A0100D80F0020306B010028150020E435002025420000940A00202D
:204FC0000000F87F6C6B01001000002044000020F86A010010B50446006830B1002107F01B
:204FE00029FA54F8040F0028F8D110BD2DE9F043038883B0044643B1B3F5867F0CD18229F7
:2050000010D0012003B0BDE8F0834FF486730120238003B0BDE8F08300230380032003B07D
:20502000BDE8F08302F0D2FFBFF35F8F19491A4B0E6800220A601F781A70FFB2BFF35F8FBA
:20504000164D02F0C7FF28680028DED0DFF85090DFF8508003E055F8040F0028D5D090F8D9
:205060004A3026FA03F3DA07F5D590F8493047FA03F3DB07EFD502F0B9FA0028EBD02B68FC
:20508000D9F80020009218464246022102F04CFAE1E700BF3C15002081340020340100202A
:2050A000E43500204551000010B50C4A90F84B30126882B001330092044680F84B30084A02
:2050C00003468021203002F02FFA064B19782246002002B0BDE8104007F030BAE435002050
:2050E000A9500000E93A002010B4094A094C13681943116021780346012202FA03F30B437B
:20510000DBB2237004485DF8044B07F045BA00BF3C150020813400203C01002010B5044618
:2051200090F84A1090F8490002F012FF10B994F8480010BD01280ABF94F84800002080F0F9
:20514000010010BD70B582B0044602F04FFA08B902B070BD04F12006304602F047FA0546F6
:205160002046FFF7DBFF01280FD00028F0D1002DEED1304602F020FA0D4B224628461978DB
:2051800002B0BDE8704007F0D9B9002DE0D0094B094A1B68009300253046234684F84B50CA
:2051A0007E2102F0C1F9054B28462246E7E700BFE83A0020E4350020A9500000EA3A002039
:2051C000F8B507F02FF9304B304C187007F02AF92F4B304F187007F025F92F4922682F4B58
:2051E00008700025FF2139727B60FD60002A42D02B4E09E091F84A00F9683A72834054F882
:20520000042F0B43FB60B2B392F84A3092F84910526C03F01F0343EA41131F2BC6BF03F050
:205220001F0331464FF0A04103F5E07342F08C0241F82350236893F84A1093F8490002F0C8
:2052400045FE226892F84A3092F8490003F01F0343EA4010012104F049FB2168387A91F8FA
:20526000492082424FF00103C4D0FF28C2D054F8042F002AC8D10B48002107F0DBF8BDE84C
:20528000F840044802F078BEEA3A002034010020E83A00202C150020E93A0020E9500000AA
:2052A000000300503C01002030B5174B83B000221A6004F0DBF800BB002004F0F3F8134B49
:2052C000134A93E80300FF250090ADF80410062400231048ADF8005069468DF802408DF8F1
:2052E000043004F079FD58B901210A4804F0C8FD084804F0B9FD03B030BDFCF77BF8DBE710
:20530000FCF778F8F0E700BF401500206CBB01004553000074BB0100014B1868704700BFED
:205320004015002008B5064A13680133136002F069FA00B908BDBDE8084002F049BA00BF55
:2053400040150020042800D07047FFF7EBBF00BF014B1868C0097047401500204160806A7A
:2053600007F01AB9F0B5858C83B0044617461E464DB36A2D22D182294AD14568002D62D013
:205380000023009304F1180204F11401284601F0A7FCD4E90431227E101E18BF01209942A9
:2053A00084F8200046D0637E0133DBB26376002A3AD0032B0ED9042384F820300023A3843A
:2053C000032003B0F0BD244B4560C0E904551B680583836201F0C4F83946308100F008FE71
:2053E0002060F0B11D4BC36323681C64216991B921683046463101F0C9F82368A3F844008D
:20540000206800F00FFE6A230120A38403B0F0BD012003B0F0BD40230022304601F078FCF1
:20542000E6E7A0840220CCE7032BC4D8022384F82030C3E7089B606898472169227E637EEC
:2054400001312161B3E7032380F820302846089B9847A5840220B4E7E43500205D53000051
:2054600010B5846882B01CB194F90830002B01DB02B010BD236A002BFAD01A68002AF7D03C
:205480000749097831B11B6A23B101909847236A01981A68002302B0BDE8104000F036BD3B
:2054A000823400202DE9F047124C82B02468DDF828A08CB106460F46914698466568434627
:2054C0004A463946304625B1CDF800A0A847054638B92468002CF1D10025284602B0BDE87D
:2054E000F087B379012BF8D13A463146002000F01DFBF2E7441500202DE9F04F2DED028BA7
:20550000B34CB44E8BB0054620460295884601F0B7F9C4F8A0500346307008BBA279013AEA
:20552000032A62D9636823F07F4323F0FF03002B4FD06379032B00F02881208900F0DAFDF1
:20554000074600284DD0D0E90F9700F0CFFDB9F1000F00F091809E493846C847337843B3CF
:205560000027C22B2BD0DFF88892384600F0BEFD3278C32A69D0BF2A84BFA022327002217F
:205580002389934800F0F4FFD9F800100391084610F0C1FB039902468D4801F0E3FB414613
:2055A0008B4800F0F3FF414682B2029800F0B4FE337818460BB0BDEC028BBDE8F08F3846A3
:2055C00000F094FD337818460BB0BDEC028BBDE8F08FC3232089337000F08CFD074600280C
:2055E000B1D13378002BE4D0BBE703900299208900F0FEFC0746002842D0039B62790893A1
:20560000CDE906334023ADF8163062BB238972484522022100F0ACFFA27A002A40F0B080FF
:2056200007AB00936A480DF11603002206A901F057FB70B9089B002B2ADADFF8B491674B7F
:20564000C9F80030822333708FE700223270032196E7BDF81620079B0893402A28BF40225B
:20566000ADF81620E7E700F07BFF452203460121594800F07DFFCFE73378002B99D06FE7ED
:20568000DFF86C91564BC9F80030A32333706CE7BDF8163050494E4808AD07F184020095F6
:2056A00008EE903A08EE102AFFF7FCFE034600284DD14748099309A901F0ECFA494BD3F868
:2056C00000908246B9F1000F67D0099B03979B46029B4D4699460AE006DD2A7AD10603D534
:2056E0001BF800202F2A08D02D68002D52D06F68384610F010FB8245EED102465946384617
:2057000010F011FB0028EFD1A279039F4B460293511E0123012AA94603FA01F300F0C180E3
:205720009A0740F1A980D9F814A0BAF1000F00F0A38008AB2849009318EE102A18EE903A55
:205740002348D04799F80830590600F1C0803378002B7FF406AFA37D1A0759D5DFF8789022
:2057600099F90630002B53DB99F816301B074FD4DFF87C901C4BC9F80030A1233370F4E670
:205780001A49154801F072FA4AE72189029800F0ADF9D2E6039FCDF808900F48842101F03D
:2057A0005FFA0D48842101F05BFA3378002B7FF4D8AE094807F1460100F0E8FE80B2A7F84A
:2057C0004400B8B9C123DFF828903370CDE600BF4C15002084340020F81500207CBB0100CE
:2057E0009CBB0100481500208CBB010057150020A80100203378002B7FF4B3AE384600F01F
:2058000011FC337818460BB0BDEC028BBDE8F08F637D089AD91115D1002ACAD0DFF80891D7
:20582000013218BF01224846402301F071FAB9F8A420D9F8A810402A28BF4022484601F0BE
:2058400091FAB2E7079B9A4232D00132069944D0BDF81630DFF8D0900122334801F058FAAB
:20586000BDF81620B9F8A43093429ED9D9F8A8102D4801F077FA98E75D0705D5D9F818A0C6
:20588000BAF1000F7FF455AF180705D5D9F81CA0BAF1000F7FF44DAF8521234801F0E0F94D
:2058A0007FE7D5F810A0BAF1000F7FF442AF37E7DFF87490B9F8A400824219D382231B49E0
:2058C00089F8063048460F2201F04CFA6DE7164A1749484600F02AF939E7DFF84C90BDF8DE
:2058E0001630B9F8A4209A4294BF00220122B4E7BDF816300699821A9A4294BF0022012234
:20590000484601F005FA0798B9F8A430BDF81620D9F8A8101B1A9A42014428BF1A46484646
:2059200001F020FA41E700BFF81500207CBB01004C15002010B50446416001460C4802F052
:2059400009FD94F90830002B00DB10BD206A0028FBD0036A002BF8D00268002AF5D0054B23
:20596000C0E903340830BDE81040002300F0CEBA481500206154000038B50A4A137803B1CD
:2059800038BD094C094D236009490A482B6001241470FFF7CFFF00F0B9FCBDE8384000F096
:2059A000D7BD00BF823400204415002048150020ACBB010058010020014B1868704700BFA5
:2059C0004815002000B10068704700BF00B583B001460190044802F033FE0199034803B0F4
:2059E0005DF804EB02F002BD4C010020A416002070B50D4B1C68A4B10546002601E0246837
:205A00006CB1294604F1180000F0E4FB0028F6D02046FFF7DBFF24680136002CF1D13046D3
:205A200070BD2646304670BDA41600202DE9F041164B1C682CB305460F4616464FF0000802
:205A400001E02468D4B1294604F1180000F0C2FB0028F6D094F82C30B342F2D132463946A6
:205A600004F12D0010F0D4F80028EAD12046FFF7ADFF246808F10108002CE4D14046BDE8B3
:205A8000F081A0464046BDE8F08100BFA41600202DE9F041144B1C680CB306460F464FF0B1
:205AA0000008251D314604F1180016B100F092FB78B1BD42284607D010F02DF9394602467A
:205AC000284610F0A5F820B92046FFF77FFF08F101082468002CE4D14046BDE8F081A04617
:205AE0004046BDE8F08100BFA4160020F8B50E4B1C68ACB105460E460027294604F1180048
:205B000000F068FB10B1E38EB34204D02468002CF3D13846F8BD2046FFF758FF0137F5E7C1
:205B200027463846F8BD00BFA41600208B79012B00D070472DE9F04792F90630002B82B00A
:205B4000154650DBCB7C5B060C464CD5D1F8A070002F48D04B6E4BB1012B44D18A7A38460C
:205B60000B3102B0BDE8F047FFF760BF096E0191384694F80AA0D4F85C80FFF789FF2048FB
:205B800002F042FD064688B3B8F1120FC146C4BF4FF01308C146B144424601994FF000083A
:205BA000043010F043F8394606F1180089F8048000F000FB524604F10B0186F82CA006F11E
:205BC0002D0010F033F80F48A6F83680314602F0C1FBB16B4B1CB363284601F079F8B36B16
:205BE00023F07F43B36302B0BDE8F0870649A32328461022AB7102B0BDE8F04701F0B2B832
:205C00004C010020A4160020C0BB01002DE9F04F2DED028B83B008EE101ADDF83890019242
:205C20009846FFF7C9FE002800F0B6800025D9F800B006462C46A34508D8454512D2019B45
:205C40004FF03C025A55D9F800B00135631C5B4508D3454506D2019B4FF02F025A55D9F879
:205C600000B00135D6F804A0504610F054F8023427185F4558D801D145456DD3D6F80CB07B
:205C80007C1CBBF1000F17D09BF80030A3B1D9F800A0A24509D8454507D2019A3B23535576
:205CA000D6F80CB0D9F800A00135584610F033F802373C18544512D8454504D9D9F8003072
:205CC000621B9A4271D83046FFF77CFE0646002847D0DCB9D9F800B0A345B7D8ADE70198F7
:205CE000384AAAEB070308F10101002BACBF5B440BF10003491B28440AF052FB054445456A
:205D000053D83046FFF75EFE0646B8B3D9F800B0A34507D8454505D2019A2C235355D9F8CD
:205D200000B00135013486E70198264AABEB040B08F10101BBF1000FACBF0AEB0B030AF10E
:205D40000003491B28440AF02BFB0544454508D2D9F800309F4291D3019A3E235355013583
:205D60008CE715BB5CB9BEB1D9F800304344C9F8003003B0BDEC028BBDE8F08FADB98221CD
:205D800018EE100A00F06CFF18EE100A0E490F2200F0E8FF002EE7D14FF0FF33C9F80030C1
:205DA00003B0BDEC028BBDE8F08F019918EE100A2A4600F0D7FF18EE100A282100F062FF2C
:205DC000D1E700BFB86601007CBB0100014806F0E3BB00BF7C0100202DE93048FFF79CFAA2
:205DE0000E4B1A68821A04D10D4BD3E90001BDE830880B4C18604FF47A71A2FB01BCD4E9D1
:205E000000254FEADB1040EA4C6080184FEADC1145EB0101C4E90001BDE83088AC16002086
:205E2000180500200148002106F004BB7C010020074B0848084A1B6810B400210124047074
:205E4000116013B15DF8044B18475DF8044B7047F0BB010083340020C01600202DE9F047E9
:205E60001E4B1B7882B0054643B3DFF874A029465046DAF8007002F0B9FADAF8001019B32E
:205E8000D5E90489002603E00C680E46F4B12146D1E90423994508BF9045F5D22A461048F0
:205EA000314602F0C7FADAF80050AF4209D00D4B9B68019302B0BDE8F0471847FFF7B8FF43
:205EC000D3E702B0BDE8F087002DEED02A46044802F0B0FADAF80050E7E700BF8334002071
:205EE000C0160020F0BB0100064B10B55B6804469847C4E9040121460348BDE8104002F0B3
:205F000075BA00BFF0BB0100C0160020084970B5496805461E4614468847241846EB010183
:205F2000C5E904412846BDE87040FFF797BF00BFF0BB010038B50B4B1C687CB10A4B5B68E8
:205F40009847D4E90445A94208BFA04202D30020014638BD201A65EB010138BD4EF6602052
:205F6000002138BDC0160020F0BB0100F8B5134F134E7C68A04735683DB102460B46D5E94C
:205F800004018B4208BF824201D20020F8BD2946304602F02BFA6B680BB128469847BB6801
:205FA00098473368002BF0D0D3E90467A047B94208BFB0422CBF01200020F8BDF0BB01002D
:205FC000C016002000B583B0014608300191FFF78BFF0199044802F009FA0199034803B0DF
:205FE0005DF804EB02F02CBBC41600208C01002070B5064609480D4602F006FB044658B182
:206000000023868080F824302946263000F0D2F80348214602F09EF9204670BD8C01002091
:20602000C41600202DE9F04190F8463013F0300F0446C3F3011526D190F82430042B13D8DC
:20604000B0F8442000F14601263000F065F994F8243023B3226A5200226204F10800002320
:20606000BDE8F041FFF752BFD0E90F672630FFF7BFFC2046FFF7A6FF46B3294638463346AD
:20608000BDE8F0411847B0F8442000F14601263000F042F92046BDE8F041FFF793BF0C4B2B
:2060A000C4E9033406F000FB0A4BA3FB00239B0A40F2DD5202FB130202F6B832226204F182
:2060C00008000023BDE8F041FFF720BFBDE8F081D9600000B76FA5AE806830B190F824307D
:2060E000013380F82430FFF79DBF704708B1FFF769BF7047044B02E09A88824202D01B689D
:20610000002BF9D118467047C4160020F8B50288044662B140F2B9139A4217D11D4B1B782A
:206120008B4217D040F2B91323800120F8BD114610460BF02BF8184B186038B343F2163325
:20614000038240F2B91323800120EFE7002303800320F8BD114B1B789B07E3D5104E114F9D
:20616000114DB7F800C0114F96E80F00203685E80F003CF806C00E4E3A883168A5F810C075
:2061800000232846AB74FFF7B7F9CBE720800220F8BD00BFEF3A0020E0160020D039002039
:2061A000E838002076340020CC160020D0380020D83900208B684A6830B40C68CD68C56023
:2061C0000460426083600B8A03828B7C837430BC704700BF38B5102205460C460FF018FD8C
:2061E00058B92A8A238A9A4200D038BDA87CA37CC01AB0FA80F0400938BD002038BD00BF43
:206200002DE9F0470C1E8AB08046174636DD0346002502E00135AC4230D0994613F8012B0D
:206220005B2AF7D1AC4229DD08EB05032E46B2460136B44222D013F8012F5D2AF7D1314993
:20624000062240460FF06FFDB0FA80F04009AE42B8741CDD484639460CF0D8FFB8B10AF169
:20626000020A08EB0A0018F80A303A2B2CD0BB7C1BB343F216433B8201200BE0214906227C
:2062800040460FF050FDB0FA80F35B09BB74272C03D900200AB0BDE8F087414622466846BA
:2062A0000FF0C4FC0AAB1C4468460023394604F8283C0CF0ABFF0028ECD043F21633012031
:2062C0003B820AB0BDE8F087023CA61BCFD00022114604E001318E4203EB4C0209D010F811
:2062E000013F303BDDB2092D02EB820CF2D90029BDD0054BC2F3072103EA02230B433B82E8
:206300000120C7E7FCBB010000FFFF000148002106F090B89801002070B582B0B8B114467D
:20632000028848F2FE039A420E46054603D00A4B5B6A984758B1094A2B8A106800933146BE
:2063400022462B460CF03CFA204602B070BD4FF0FF34204602B070BD08C00100E016002057
:206360000C2830B440D9B0F5867F94BF6FF02F046FF01F040C2935D9B1F5867F94BF0D236A
:206380000E232343B0F5867F137016D96FF4867543191B0A0D385370907002230320B1F575
:2063A000867F15D96FF486740C19D518240A0D391454A970D81C30BC70470C280FD90D388E
:2063C000B1F5867F50704FF001034FF00200E9D80C29F0D90D39115430BC0130704701206F
:2063E0000023DCE74BB2CCE703015CB2C2E700BF2DE9F0411E0C13F07F474FEA06461C466C
:2064000015460B4614BF01210021CEB1013124F0FF080231C01A2A46FFF7A2FFCFB1230E29
:206420002B54421C1EB3230CAB540230B8F1000F02D0230A2B5401302C540130BDE8F08120
:2064400034F0FF08E5D14CB9BDE8F041C01AFFF787BF6EB1230C2B540130EAE70131C01A8F
:20646000FFF77EFF002FDAD1002CE7D0E4E71046B8F1000FDDD1002CE0D0DDE7F8B50E68A2
:206480009DF818700C461D4616B902602360F8BD03689F550B6801330B6000681146184435
:2064A0002A460FF0D1FB23682B442360F8BD00BFF8B5069D401A29461F46FFF751FF39466D
:2064C000044610182A460FF0B1FB2819F8BD00BF2DE9F04F83B092460C9A9DF834400194D6
:2064E000013200249846834699460092274625468E4604E0009B01349C42274623D818F877
:2065000007C0019B08EB0706A6EB09069C450AEB0502ABEB0E00314602D00C9BBB42E9D150
:20652000FFF71EFF054449460AEB050032460FF07DFB0134009B08EB040901349C4235442B
:20654000DE462746DBD9284603B0BDE8F08F00BF08B506F0A9F8014B188008BD6834002039
:20656000024B1888013080B21880704768340020F8B504460F4616461D46AC2200210FF0C7
:206580007DFB6771A6712581F8BD00BFF0B501220023016002710B7002680F46137801797C
:2065A00043EA811313700268437911781B0103F030030B4313700268837A117803F00F03E0
:2065C0000B431370036882795A70038902681B0A937003680289DA70837983B00446002BB8
:2065E00000F040810368827A1D1D62B16FF00301C91A00F10B0313F8012B05F8012BA67A71
:206600006A189642F7D8E37C9807C3F340010CD594F86A3000932A4604F16B0300210120AD
:20662000FFF746FFE37C054401211A0709D5236C0093636C2A460320FFF73AFFE37C0544FB
:206640000321DE060BD594F8243000932A4604F125030420FFF72CFFE37C054404219806A2
:2066600007D500232A460520FFF7C2FEE37C054405215A0607D5636E2A460620FFF7B8FEB3
:20668000E37C05440621DB0907D02A46B4F850300720FFF7ADFE07210544237DDE070BD536
:2066A000A36C2F22CDE900320820E36C2A46FFF70FFF237D0544082118070BD5E36D2F22F5
:2066C000CDE900320B20236E2A46FFF701FF237D05440B21DA0607D5A38B2A460C20FFF71F
:2066E00087FE237D05440C215E0607D5236A2A460E20FFF77DFE237D05440E21DB090CD04B
:20670000D4F894302622CDE900320F202A46D4F89830FFF7DDFE0F210544637D980708D5E0
:20672000B4F868302A461120FFF762FE637D05441121DA060BD5636D2622CDE900321420CF
:20674000A36D2A46FFF7C4FE637D05441421DB091AD0636F94F878201B01002A40F0858064
:20676000B4F87A2000201209461C52088446B0B2FAD118B10CF00F0C43EA0C032A46172022
:20678000FFF736FE17210544A37D1E071BD5D4F8803094F884201B01002A69D1B4F886209B
:2067A00000201209461C52088446B0B2FAD118B10CF00F0C43EA0C032A461B20FFF718FE18
:2067C000A37D05441B21D80607D52A46D4F88C301C20FFF70DFE1C210544E37D1A0709D540
:2067E000236B0093636B2A462320FFF761FEE37D05442321DB0908D0A36B00932A46E36B9A
:206800002720FFF755FE27210544A37EDB0611D42368EB1A3E2B18DCB4F8A420E2B9D4F8AC
:20682000A81028460FF010FAB4F8A400ED1B284403B0F0BDD4F890302A463C20FFF7D8FDE2
:2068400023680544EB1A3E2BE6DD0B4B0B4A002020601A6003B0F0BDFF2305F8013BB4F807
:20686000A420DCE7042003B0F0BD43F0080377E743F0080392E700BFA801002010BC010065
:20688000032A40F2CC802DE9F04704460D4682B0002191460430A8220FF0F0F9256095F841
:2068A00000804FEA981884F804802B78C3F3011363712A7802F00F02A2726B78A371A9785D
:2068C000EB78B8F1010F43EA012323817CD1082A00F2AC80291D8E1805EB090A564576D832
:2068E00004F10B000FF0A2F900275645C4F81370C4F8177080F0A580337803F0F002F02A7B
:2069000000F08781711C8A454FEA131003F00F035DD90D285FD00E2868D00D2B62D00E2B17
:2069200070D0CE18B24552D307443C2F4FD804EBD70C07F007029CF8130008FA02F2024384
:20694000781E8CF8132002463B2A74D8DFE812F07B0073008600890094009700A400B300A9
:2069600073007300BD00C7007300D500E2007300EC0073007300FB007300730005017300E4
:20698000730073002401450173007300730073007300730069007300730073006900730056
:2069A0007300730073007300730073007300730073007300730073007300730073007300A7
:2069C0007300730073005301A04BA14A1A60802002B0BDE8F0877078B11C0D308A45F6D9BC
:2069E0000D2B9CD111F8013B0D339AE77078B21C92454FEA0020EAD9B27802F20D121044B2
:206A0000F11CEBE70E4616F8013BB2454FEA0323DDD94A7802F20D121344023181E7802086
:206A200070478A4B8B4A1A60A520D1E7874B8A4A1A608020CCE7FB0700F10281B2453FF6E9
:206A40005BAF0020C4E7082B28BF08231A4684F86A3004F16B000FF0E9F8EFE7C4E91031A2
:206A6000ECE7082B28BF08231A4684F8243004F125000FF0DBF8E1E784F89C80DEE74BB1C1
:206A8000013BC8180139002311F8012F884242EA0323F9D16366D1E753B1013BC818013983
:206AA000002311F8012F884242EA0323F9D19BB2A4F85030C2E72F200A46009004F1480115
:206AC00004F14C00FFF7DAFCB8E72F200A46009004F15C0104F16000FFF7D0FCAEE753B1D9
:206AE000013BC8180139002311F8012F884242EA0323F9D19BB2A383A0E74BB1013BC818EC
:206B00000139002311F8012F884242EA0323F9D1236293E726200A46009004F1940104F155
:206B20009800FFF7ABFC89E753B1013BC8180139002311F8012F884242EA0323F9D19BB2C7
:206B4000A4F868307AE726200A46009004F1540104F15800FFF792FC70E7002B6CD0013B65
:206B60000B440020013911F8012F8B4242EA0020F9D100F00703102120F00F02994089B2F0
:206B800002FA03F3C0F3C002000984F87820A4F87A10E367606751E7002B49D0013B0B4433
:206BA0000020013911F8012F8B4242EA0020F9D100F00703102120F00F02994089B202FA03
:206BC00003F3C0F3C002000984F88420A4F88610C4F88830C4F8800030E74BB1013BC81810
:206BE0000139002311F8012F884242EA0323F9D1C4F88C3022E74BB1013BC8180139002323
:206C000011F8012F884242EA0323F9D1C4F8903014E70136751BA9EB0505ADB2402D88BF66
:206C200040250020C4F8A860A4F8A4507055CFE6184610211A46C7E7184610211A46A4E7EA
:206C4000024B064A1A608220C2E600BFA801002040BC010080BC010058BC0100A8BC010097
:206C6000FF299ABF817101200020704710B5082A28BF0822144682720B300EF0D7FF2046DE
:206C800010BD00BF037D818343F0100303750120704700BF037DC3F3C0021B0702D5036E2D
:206CA0000B60C26D104670470B782F2B10B5044603D111F8013F2F2BFBD0216608460FF02B
:206CC0002AF8237DE06543F00803237510BD00BFC37C416643F04003C3740120704700BF21
:206CE00030B40446407DC0110FD009B1656F0D6012B194F87810117013B1B4F87A201A8002
:206D0000029B13B1029AE36F136030BC704700BF10B4A3F11004B4F5FE6F02D8B1F5801FAE
:206D200003D300205DF8044B7047447D4167003A64F07F0118BF012280F87820A0F87A303F
:206D400041755DF8044B0120704700BF11B1D0F8A8300B60D0F8A83013B1B0F8A40070470E
:206D6000184670470346402A28BF40221046A3F8A420C3F8A81070472DE9F04105F06AFA83
:206D8000FEF792FA07F09CFE05F076FB00216648664FDFF8EC81664D664C674E05F04AFB5F
:206DA00000F0B4FB0CF04CFC09F016FB05F05AFA05F010FC614B1B6898477B689847D8F8FC
:206DC00004309847A979EB79226803EB0123022A338025DC5A4B29686A6819605A605948C2
:206DE000002105F027FB4FF0FF300AF075FE2368022B054600F3818005F056FAFEF7BCFD96
:206E00005148FEF7E7F80CF045FC05F03BFB04460CF048FC14F0FF0FF7D105F04BFAF4E724
:206E20004A4A4B494B4805F061FA4B4805F0C4FB2368022BCEDD454A4549464805F056FAAD
:206E4000464B4748196805F051FA2368022BC1DD3E4A3F493F4805F049FAD8F800104148C3
:206E600005F044FA2368022BB4DD384A3849394805F03CFA39683C4805F038FA2368022BE3
:206E8000A8DD324A3249334805F030FA37484AF6CD3105F02BFA2368022B9BDD2B4A2C49EB
:206EA0002C4805F023FA32481A2105F01FFA2368022B8FDD254A2649264805F017FA31885A
:206EC0002C4805F013FA2368022B83DD1F4A2049204805F00BFA284805F008FA2368022BD1
:206EE0007FF778AF284601F0EBFA2368022B7FF771AF0A2005F05EFB6CE7144A1449154880
:206F000005F0F4F91D4805F0F1F92368022B7FF773AF284601F0C4FA2368022B7FF76CAF95
:206F20000A2005F047FB67E7E0010020BCBD0100D4340020000200206A34002080BE0100E0
:206F4000D8380020F0020020B86C0100C4BC01004065010048650100CCBC010008C00100A3
:206F600004BD010014BD010020BD01002CBD010048BD010068BD010078BD010090BD010005
:206F800088C0010030B590F82D50012D83B0044611D91F2505F088FB094BB0FBF5F11B6805
:206FA000009301FB1501074A234604F10C0000F0BBFA03B030BDE91C01258D40013DE9E726
:206FC000E4350020497000002DE9F0470D468B6892F82C708146506BD3E90068144601F015
:206FE00005FA686805F032FBA968134801F028FB1248294601F024FB636B1B6873B10023AF
:20700000A3852046FFF7BEFF36B13A46494640463346BDE8F0471847BDE8F08704F10C00E2
:2070200000F0CAFA2146064801F0E0F92146054801F006FBE8E700BFAC010020C401002037
:207040004C170020B8010020F8B12DE9F047436B1D6882B00446ADB1686805F00DFB634958
:207060000C2005F0DFF80121072005F0CFF800F059F900280ADAAB6823B1052022462946E2
:20708000FFF7A2FF02B0BDE8F087704705F018F8DFF85C8190F80290D8F8047005F010F8C0
:2070A000064605F017F801463046B84705F0CAF8D8F818600746B04770BB002F50D1D8F836
:2070C0001CA0D04740BBD8F8087005F003F8B84700285CD002281FD0AB68002BD2D004203A
:2070E000CCE707F021FD6FF028031E1A03E007F01BFDC64202D5D0470028F8D0D0470028EF
:207100005DD0D8F81030032101A89847032803D19DF806304B452AD0AA68002AB2D094F8E8
:207120002D300133DBB2052B84F82D3094F82C3006D90133DBB2002184F82C3084F82D10EE
:20714000127A9A4205D8224629460120FFF73CFF98E72046FFF716FF686805F071FA91E729
:20716000D8F8086004F0B6FFB0470028B2D1AB68002B87D094F82C3000200133294684F8D0
:207180002C3084F82D002246FFF71EFF7AE707F0CBFC6FF018073F1A03E007F0C5FCC742D5
:2071A00002D5D0470028F8D0B047002899D1D047002896D1D8F814309847002891D0A96835
:2071C00000293FF45FAF94F82C300133DBB2002284F82C3084F82D200A7A9A42B9D8224680
:2071E00029460220FFF7F0FE4CE700BFD434002080BE01002DE9F04105460D200F4605F0B8
:2072000019F8064601F08CF901210B2004F0FEFF374B1C6814B914E0246894B13146201D11
:2072200001F090F80028F7D0606B01F0F9F807281EDDDDB138462B460122BDE8F041062172
:2072400018472C4801F0E0F904460028F1D03146201D01F071F8002304F13002C4E90C321B
:207260002348A385214601F075F8DDE7BDE8F081214801F0C9F9064660B3204801F0C4F94B
:20728000B06018B305F0BAF97060D8B10520D6F8088004F0C1FFC8E9005710F0FF0006BF17
:2072A000082388F8083088F80800606B314601F051F8636B1B689E42D8D12046BDE8F041D1
:2072C000FFF760BEB1680D4801F0BAF90A48314601F0B6F9606B01F0A3F80028A9D12146BF
:2072E000034801F083F82146024801F0A9F9A0E74C170020B8010020C4010020AC010020FE
:2073000008B5054801F06EF9044801F06BF9BDE80840034801F066B9C4010020AC01002070
:20732000B801002010B501210B2004F06FFF024BBDE810405B681847F4BD0100014B9B689B
:20734000184700BFF4BD0100014B1B6A184700BF80BE0100014B5B6A184700BF80BE0100C1
:2073600010B50D4B82B01B6898470C4B04469B6A01A91920984701280BD0002C0198B8BFB4
:2073800015248028D4BFC4EB0000C4F1800002B010BD002002B010BDF4BD010080BE010086
:2073A000FFF728BF00B583B004F08EFE032802D103B05DF804FBFFF7C1FF0028F8DB0D20A5
:2073C00004F038FF1F4900F0BDFFE8B10C2004F031FF1C4900F0B6FF0028E9D101F0AAF806
:2073E000B8B1072004F018FF0028E1D00223ADF8043004F065FE144B8278DB688DF806207D
:20740000032101A89847D3E704F01CFF0028DDD1CEE701F0B5F8072004F0FEFE18B90B4B90
:207420009B689847C4E70223ADF8043004F048FE054B8278DB688DF80620032101A89847A3
:20744000EDE700BFD434002080BE010088C0010030B50D4C83B0A56A69461920A84748B991
:2074600001A90420A84738B101F052F8FFF748FF236A984703B030BD0199E36A21F00201E7
:20748000019104209847EFE780BE0100F8B5038805462BB14A2B14D1882916D00120F8BD1C
:2074A000174B1C6834B1A168201D00F097F92468002CF8D1134B01221A704A232B80012076
:2074C000F8BD002303800320F8BD0D4B1C68002CF3D0231D9A4205D02468231D002CECD009
:2074E0009A42F9D10648084E214600F07FFFD4E90523376832600BB1E06998473760DCE719
:207500002C18002085340020E4350020034A044B044800211170196004F08CBF85340020DA
:207520002C180020D001002070B50E4C049E25784661C0E90623044635B9A1600A482146CD
:20754000BDE8704000F006BF084D094B2E682B60043000F043F92E6021460348BDE8704062
:2075600000F0F8BE853400202C180020E4350020D001002070B50C4B1B7804462BB921465A
:207580000A48BDE8704000F0E5BE094D094B2E682B60043000F02CF92E6021460348BDE8B8
:2075A000704000F0D7BE00BF853400202C180020E4350020D001002010B50A4B1B78044679
:2075C0003BB9C0E9033321460748BDE8104000F00DBF043000F01EF921460348BDE810408F
:2075E00000F004BF853400202C180020094B1A7842B9094B01E0984209D01B68002BFAD159
:20760000012070470069B0FA80F0400970470020704700BF853400202C18002010B504462D
:20762000C0B20BF0D9FF0A2C01D0204610BD0BF0A3FF204610BD00BFF8B588B10F46461E9D
:20764000002500E0013516F8014F20464CB1AF4207D00BF0C1FF0A2CF4D10BF08DFFF1E751
:2076600005460BF089FF2846F8BD00BF10B5FDF753FE0B4B1A68D2E9003192680B44191A10
:2076800052B1D2E9003423441B1A9268994228BF1946002AF5D14318024A136010BD00BFAB
:2076A00034180020301800202DE9F843038805465BB3592B2CD187292FD0822920D12C4F7A
:2076C000DFF8B4803C684FF00009CCB1002603E0A3682646A3B11C46204609F0C5FE0028B6
:2076E000F6D0E0682246882104F028FF03464046002B2AD004F050FFA3682646002BEAD1BC
:2077000059232B800120BDE8F883194A1360F7E7002303800320BDE8F883154F396800203F
:2077200019B9EDE789680120D9B1CB689342F9D000B139608B68002BE2D0D868904207BF44
:207740009B688B6019469B68F5E7E360A3686EB1B3603B68C4F808902BB1FFF787FF3C688A
:20776000B3E73960CCE7034A1360C9E73B60F1E73418002030180020E001002010B504465C
:20778000104804F009FF1049E3680A684BB142B194420FD0134601E09C420BD09B68002BBA
:2077A000FAD10A4BA2601B68E3600C60BDE81040FFF75CBF054B1B68E360BDE81040FFF76E
:2077C00055BF00BFE001002034180020E4350020014804F0E1BE00BFE001002010B5044685
:2077E00009F02CFE2046BDE81040FFF7C7BF00BF10B5044609F02AFE2046BDE81040FFF74F
:20780000BDBF00BF024B1868003818BF012070473418002010B5124B19688142044614D079
:207820000B462BB19A68A24206D01346002BF9D10023C4E9023310BDA2689A6049B1FFF74B
:2078400015FF0023C4E9023310BD82681A60002AF5D1044B00221A600023C4E9023310BD31
:207860003418002030180020014B1888704700BFEC03002000283ED0037A022B30B410D01F
:207880000378022B15D00379B3B10024C37913F0030318BF012301B10C6002B1136030BCE7
:2078A0007047C579447A037965B90CB9012BF2D0DBB100231C46EEE7447A14F0030418BF42
:2078C0000124E3E7C4B1032D37D1032C2ED0022C24D143BB022D2DD00123032D24D1A4F1B4
:2078E0000204B4FA84F46409D5E7023C012C8CBF00240124CFE770474BB9022D08BF0123A9
:20790000EAD1A4F10304B4FA84F46409C3E7032D01D0022D02D123461C46BCE7002BC8D19E
