:020000040000FA
:201000000000042049880000718800007388000075880000778800007988000000000000EA
:201020000000000000000000000000007B8800007D880000000000007F8800008188000098
:201040005DA700005D9D000025220100838800008388000083880000F9A300008388000082
:20106000E9F5000083880000838800006DA80000838800006DA70000838800008388000032
:2010800079C8000083880000838800008388000083880000838800008388000083880000C2
:2010A0008388000083880000838800008388000083880000838800000000000000000000EE
:2010C000838800008388000083880000838800008388000083880000838800005DC00000A6
:2010E0008388000083880000838800000000000000000000838800000000000083880000B9
:201100000000000000000000000000000000000000000000000000000000000000000000CF
:201120000000000000000000000000000000000000000000000000000000000000000000AF
:2011400000000000000000000000000000000000000000000000000000000000000000008F
:2011600000000000000000000000000000000000000000000000000000000000000000006F
:2011800000000000000000000000000000000000000000000000000000000000000000004F
:2011A00000000000000000000000000000000000000000000000000000000000000000002F
:2011C00000000000000000000000000000000000000000000000000000000000000000000F
:2011E0000000000000000000000000000000000000000000000000000000000000000000EF
:2012000001F0FF01102A2BDB10F0070F08D010F8013B013A8B422DD010F0070F42B3F6D194
:20122000F0B441EA012141EA014122F007047FF000070023F0E80256083C85EA010586EA41
:20124000010685FA47F5A3FA87F586FA47F6A5FA87F68EB9EED1F0BC01F0FF0102F007023C
:2012600032B110F8013B013A83EA010313B1F8D10020704701387047002D06BF354603389F
:20128000073815F0010F07D1013015F4807F02BF013015F4C03F0130F0BC0138704700BF63
:2012A000D0B5038804463BB15C2B0DD188290FD082290DD00120D0BD80211D4806F07CFF46
:2012C0005C2323800120D0BD002303800320D0BD05F03AFBE8B905F01BFB02460B4652EA3D
:2012E000030116D010A7D7E90067D90141EA5261D0018F4208BF86420FD3002908BFB0F5C6
:201300007A7F0DD34FF47A72002314F085FD0146D3E708480BF020FED2E74FF4F051CCE7C2
:201320000121CAE7AFF30080E7337500000000008C0A0020A80000202DE9F84300202DED20
:20134000028B55EC104B57EC116B13F0FBF813F08BF8454B1A68002A66D101221A6013F016
:20136000B1F814F017FA3AA3D3E9002314F0A6FB02460B4643EC182B37A3D3E9002314F086
:20138000E5FC00284DD1B0EE480AF0EE680A00F09FF9002251EC100B4FF0404314F064FAC0
:2013A000DFF8CC80C8E9000113F08CF814F0F2F927A3D3E9002314F081FB02460B4614F01C
:2013C0009DF827A3D3E9002314F04EFA274B98ED000B41EC180BC3E9000113F081FFB0EE63
:2013E000407AF0EE607AB0EE480AF0EE680A59EC178B00F0C1F832463B4657EC106B40466E
:20140000494614F031FA32463B4614F02DFA22462B4614F073F8BDEC028B41EC100BBDE87F
:20142000F8839FED0D8BAEE71149002291ED000B1A6013F055FF0D4BB0EE407AF0EE607A3A
:2014400093ED000B59EC178B00F0EAF8D3E700BF0000C0FFFFFFDF4130058EE42EFF2B2BC8
:20146000182D4454FB21094004190020C0070020B807002000000000F0B5058893B0044668
:201480000E4635B1432D44D000230320238013B0F0BD2B4A2B482C4F152105F09FFB9FED81
:2014A000241B9FED250BFFF747FF2849284A294887ED000B0BF0FAFBD7E9002326480BF0E6
:2014C000F5FB2B4602222548294605F03FFD2449224806F0D7F8D7E900234021CDE90023C1
:2014E00002A8204A0FF0B0FC02A814F055FE02A902461A4806F024F9154A144915480BF0B0
:20150000D5FB194802A90BF0D1FB184A432395842380174B00930A4A104B1448314604F039
:201520000FFC0128B0D8002013B0F0BDAFF30080B4CC22145B912C409BFEEC470A3F654075
:2015400034190020BC6A0100C8070020BC670100886A0100C4670100D46A01004819002005
:20156000E86A0100F46A0100146B01000819002035D100000000000000B551EC100B264A75
:2015800021F00043934285B01EDD244A934209DD10EE102A0B4613F0AFFF41EC100B05B092
:2015A0005DF804FB684600F0E7FA00F00300012811D0022825D0E8B19DED021B9DED000B67
:2015C000012001F079FAEAE79FED111B00F00CFD05B05DF804FB9DED021B9DED000B01F0CE
:2015E0006BFA53EC102B03F1004300EE903A05B05DF804FB9DED021B9DED000B00F0F4FCF8
:20160000CDE79DED021B9DED000B00F0EDFCE8E70000000000000000FB21E93FFFFFEF7F82
:2016200000B551EC100B284A21F00043934285B025DD264A934209DD10EE102A0B4613F014
:201640005BFF41EC100B05B05DF804FB684600F093FA00F00300012819D0022826D0E8B1F6
:201660009DED021B9DED000B00F0BEFC53EC102B03F1004300EE903A05B05DF804FB9FED86
:20168000101B002001F018FA05B05DF804FB9DED021B9DED000B00F0A7FCD4E79DED021BC2
:2016A0009DED000B012001F007FACCE79DED021B9DED000B012001F0FFF9D7E7AFF30080A9
:2016C0000000000000000000FB21E93FFFFFEF7F38B52DED028B55EC104B00F041F81E4B98
:2016E000B0EE408AF0EE608A93F9003001331AD022462B462046294614F050FB98B9002270
:2017000000232046294614F03FFB60B9204629460022002314F010FB60B114F0F9FC9FEDBB
:201720000C8B22230360B0EE480AF0EE680ABDEC028B38BD14F0ECFCBDEC028B2123036036
:20174000BDE83840054801F0FBBA00BFAFF30080000000000000F0FF670300207069010045
:201760002DE9F04F51EC100B2DED028BB1F5801F83B00B4657DA21F00042024300F0FE8015
:201780000029C0F23E81E44B002214F06DF8E34A0B4693426FF035074ADCC3F3130505F519
:2017A000152606F6647606F4801686F07F5282F4401242EA05011C150022D94B13F09CFE33
:2017C000AB1CA4F2FF34C3F313033C44022B04EB165482468B464FF0000234DC002314F096
:2017E000ABFA002800F0D780002C00F06681204613F0D0FFB2A3D3E9002306460F4614F0C1
:2018000033F8B1A3D3E9002304460D463046394614F02AF802460B462046294613F06EFED5
:2018200041EC100B0AE0BD4A93424FF00007B4DD02460B4613F062FE41EC100B03B0BDEC23
:20184000028BBDE8F08F4FF0804313F057FE02460B465046594614F031F902460B46204682
:2018600043EC182B13F096FF53EC182B06460F4651EC180BCDE9006713F0F6FF02460B462D
:201880008046894613F0F0FF91A3D3E9002306460F4613F0E9FF90A3D3E9002313F02EFEE1
:2018A00032463B4613F0E0FF8DA3D3E9002313F025FE32463B4613F0D7FF8BA3D3E9002339
:2018C00013F01CFE42464B4613F0CEFF88A3D3E90023804689463046394613F0C5FF86A37E
:2018E000D3E9002313F00AFE32463B4613F0BCFF83A3D3E9002313F001FE32463B4613F044
:20190000B3FF0B4602464946404613F0F7FDA5F5C223C5F5D725A3F27A4351351D43002DD6
:2019200006460F465FDD7F4B00225046594613F09BFF52465B4613F097FF80468946002C79
:201940006AD142464B463046394613F0D7FD53EC182B13F089FF02460B464046494613F0A9
:20196000CBFD02460B465046594613F0C5FD41EC100B03B0BDEC028BBDE8F08F0022002372
:201980006949002014F09AF841EC100B03B0BDEC028BBDE8F08F5CA3D3E900235046594677
:2019A00013F062FF02460B4600205E4913F0A4FD524606460F465B465046594613F054FF5A
:2019C00002460B463046394613F04EFF06460F46002C5AD102460B465046594613F08CFDD7
:2019E00041EC100B2AE7002C40F0A08002460B465046594613F080FD53EC182B13F034FF0C
:201A0000AFE710EE102A13F077FD0022002314F055F841EC100B11E729A3D3E90023DDE93A
:201A2000000113F021FF42464B4604460D463046394613F063FD53EC182B13F015FF22A316
:201A4000D3E9002306460F46DDE9000113F00CFF02460B463046394613F050FD02460B46BA
:201A60004046494613F048FD52465B4613F044FD02460B462046294613F03EFD41EC100B98
:201A800003B0BDEC028BBDE8F08F204613F082FE0BA3D3E900238046894613F0E5FE0AA39B
:201AA000D3E9002304460D464046494613F0DCFE02460B4630463946D4E79FED150BBDE620
:201AC0000000E0FE422EE63F763C7935EF39EA3D44523EDF12F1C23FDE03CB966446C73F3B
:201AE000599322942449D23F935555555555E53F9FC678D0099AC33FAF788E1DC571CC3F01
:201B000004FA97999999D93F555555555555D53F000000000000000000005043FFFFEF7F3C
:201B20000000F03F0000E03F000050C3DDE900890DA3D3E900234046494613F095FE324643
:201B40003B4604460D465046594613F0D5FC53EC182B13F089FE06A3D3E9002306460F4629
:201B6000A2E700BFAFF300800000E0FE422EE63F763C7935EF39EA3D2DE9F04F53EC102B0A
:201B80002DED048B924923F000458D4289B0044640F38F808F498D429B462DDCBBF1000F89
:201BA000194610EE100A80A3D3E9002340F3C78113F0A2FC884B9D4206460F4600F091803C
:201BC0007BA3D3E9002313F097FC02460B46C4E900233046394613F08FFC75A3D3E900238F
:201BE00013F08AFCC4E902014FF0010A504609B0BDEC048BBDE8F08F78498D4240F39480E0
:201C000077498D4210EE100A61DC4FEA255AAAF2164AA5EB0A5116460F4614F0D5F813F0BC
:201C2000B9FD804689463046394642464B46CDE9028913F061FC6B4B002213F015FE0F4667
:201C4000064614F0C1F8054613F0A4FD02460B4630463946CDE9042313F04EFC614B002206
:201C600013F002FE02460B46CDE906230022002314F062F8002800F06081002D0CBF012331
:201C80000223594A019202215246009102A8214600F0EAFABBF1000F8246A7DA6268E3689F
:201CA00002F1004203F10043C0F1000A6260E3609CE7002000214FF0000AC4E902015046A5
:201CC00084ED000B09B0BDEC048BBDE8F08F194613F012FC4FF0000AC4E90201C4E900015C
:201CE00084E735A3D3E9002313F006FC34A3D3E9002306460F4613F0FFFB02460B46C4E923
:201D000000233046394613F0F7FB2DA3D3E9002313F0F2FB4FF0010AC4E90201504609B0CE
:201D2000BDEC048BBDE8F08F13F0D8FB57EC106B10EE100A24A3D3E90023394613F094FDE2
:201D40002A4B002213F0DAFB14F03EF8824613F021FD15A3D3E900238046894613F084FD41
:201D600002460B463046394613F0C6FB10A3D3E9002306460F464046494613F075FDBAF1A9
:201D80001F0F49EC198B47EC186B8046894631DC174B0AF1FF3253F82230AB422AD002468A
:201DA0000B4630463946A4E000004054FB21F93F3163621A61B4D03D0000601A61B4D03DA3
:201DC0007370032E8A19A33B83C8C96D305FE43FFB21E93F7BD90240FB21F93FFB21394177
:201DE000FFFFEF7F00007041287001000000E03FA86F010042464B4651EC180B13F07CFB03
:201E00000A46C2F30A53C3EB1553102B0146064617464FEA255573DD69A3D3E9002351ECF4
:201E2000190B13F021FD59EC188B06460F4632463B4618EE100A494613F05EFB41EC180B80
:201E4000404653EC182B494613F056FB32463B4613F052FB5CA3D3E9002306460F4651EC92
:201E6000190B13F001FD32463B4613F045FB8046894642464B4651EC180B13F03DFB0A4668
:201E8000C2F30A53ED1A312D01460646174637DD50A3D3E9002351EC190B13F0E5FC56EC6E
:201EA000185B8046894642464B4618EE100A314613F022FB41EC180B314653EC182B284693
:201EC00013F01AFB42464B4613F016FB43A3D3E9002306460F4651EC190B13F0C5FC3246BA
:201EE0003B4613F009FB8046894651EC180B42464B4613F001FBC4E9000106460F4601E01D
:201F0000C4E9001232463B4651EC180B13F0F4FA42464B4613F0F0FABBF1000FC4E9020147
:201F2000BFF664AE07F1004501F10043C4E90065C4E90203CAF1000A58E60323A1E613F0F1
:201F4000DDFA234B9D4206460F4616D01AA3D3E9002313F0D3FA02460B46C4E9002330468B
:201F6000394613F0C9FA14A3D3E9002313F0C6FA4FF0FF3AC4E9020138E611A3D3E90023EA
:201F800013F0BCFA10A3D3E9002306460F4613F0B5FA02460B46C4E900233046394613F042
:201FA000ABFA09A3D3E9002313F0A8FA4FF0FF3AC4E902011AE600BF3163621A61B4D03D33
:201FC0000000601A61B4D03D7370032E8A19A33BFB21F93F0000002E8A19A33BC14920257E
:201FE0009A837B39000000002DE9F84F57EC106B27F00049B9F1795F2DED048B5BEC11AB67
:2020000071DA10EE100A394613F0DEFE002800F0F68032463B463046394613F025FC7CA340
:20202000D3E9002304460D4613F01EFC7AA3D3E9002313F063FA22462B4613F015FC78A3A3
:20204000D3E9002313F058FA22462B4613F00CFC75A3D3E9002313F051FA22462B4613F047
:2020600003FC73A3D3E9002313F046FA22462B4613F0FAFB70A3D3E9002313F03FFA2246C2
:202080002B4613F0F1FB41EC180B714B00222046294613F0E9FB53EC182B80468946204679
:2020A000294613F0E1FB52465B4604460D463046394613F0D9FB02460B462046294613F0BF
:2020C0001BFA02460B464046494613F015FA02460B4600205F4913F00FFABDEC048B41EC59
:2020E000100BBDE8F88F10EE102A10EE100A3B46394613F0B9FB46A3D3E9002304460D462D
:2021000013F0B2FB44A3D3E9002313F0F7F922462B4613F0A9FB42A3D3E9002313F0ECF92A
:2021200022462B4613F0A0FB3FA3D3E9002313F0E5F922462B4613F097FB3DA3D3E9002359
:2021400013F0DAF922462B4613F08EFB3AA3D3E9002313F0D3F92B46224613F085FB3E4BD4
:20216000994541EC180B90DD3C4B99453CDC0022A9F50013374900209046994613F0BCF967
:2021800041EC190B324B00222046294613F06CFB42464B4613F0B0F953EC182B8046894634
:2021A0002046294613F060FB52465B4604460D463046394613F058FB02460B46204629465D
:2021C00013F09AF902460B464046494613F094F902460B4651EC190B13F08EF9BDEC048B6F
:2021E00041EC100BBDE8F88F9FED157BDFF87090B0EE479AF0EE679A4FF00008C2E7BDEC81
:20220000048B9FED110BBDE8F88F00BFAFF30080D43888BEE9FAA8BDC4B1B4BD9EEE213E0F
:20222000AD529C804F7E923E9015CB19A001FA3E7751C1166CC1563F4C5555555555A53F4A
:20224000000000000000E73F000000000000F03F0000E03F0000F03F3233D33F0000E93F3C
:202260000000D23F000000002DE9F04FADF5197DBB4CA29D089354F825400594013B12F156
:20228000140F04900B910393C0F22683B549D31E81FB0301DB17C3EBA10307930133A3EBEB
:2022A0008303DB00D3180693079A039BD41A059AD6181AD40136A39F4FF000084FF0000989
:2022C000264420AD08E057F8240013F063FA0134B442E5E8020108D0002CF4DA0134404684
:2022E0004946B442E5E80201F6D1059B002BC0F2C883089BDDF80C90DA000292059A1A447B
:202300000192049A20A901EBC30A0DF5E07B02EBC308039B002B4FF000044FF0000511DBB9
:20232000049E574677E90223F6E8020113F09CFA02460B462046294613F0E0F84645044641
:202340000D46EFD1019B09F101099945EBE802450AF1080ADDD1059A04980CA901EB8203B6
:2023600002990144083B8B460BA90993134601EB82020A920193019A98A901EBC203002A69
:2023800053E928452ADD0DF5E07909EBC2080DF1300A754B00222046294613F065FA13F020
:2023A00013FD13F0F7F9714B002206460F4613F05BFA02460B462046294613F09DF813F03A
:2023C00003FD044678E902234AF8044B3046394613F094F8C84504460D46DAD1DDF8189046
:2023E00045EC104B484600F0B3FC55EC104B00224FF07F5310EE100A294613F035FA41EC6F
:20240000100B00F019FC5A4B51EC100B002213F02BFA02460B462046294613F06DF80D462C
:20242000044613F0D1FC804613F0B4F90B4602462946204613F060F84B46002B06460F46E6
:2024400040F39880019A0CA9013AC9F1180351F8225045FA03F101FA03F3EB1AC9F1170517
:202460000CA843FA05F5002D40F82230884400F38B80002200233046394613F05DFC002832
:2024800000F05682019B059A03F1FF3A524510DC03F180430CAA013B0A9802EB83030022A9
:2024A00053F80419834242EA0102F9D1002A40F0DC80059B0CAA013B52F82330002B40F0B6
:2024C000CF80099A012352F8041901330029FAD001994A1CCB1802939146079B089902EBD9
:2024E000030A019B0B44984620AB0AF1804A03EBC808A39B0AF1FF3A03EB8A0A70AB03EBBB
:20250000C20301935AF8040F13F044F90B46039902460029C8E9002347464FF0000408F1C2
:2025200008084FF0000511DB049E01E077E90223F6E8020113F098F902460B462046294670
:2025400012F0DCFF5E4504460D46EFD1019BE3E802450193029B09F101099945D2DD09E73E
:2025600030710100ABAAAA2A0000703E00007041000020406BD1019B0CAA013B52F823504A
:20258000ED15002D7FF775AF019B002B08F1010840F3CC810C9C002C51D1019B012B20D07B
:2025A0000CAB012253F8044F002C4BD0531C0CA9C4F1807441F822400199994210DD0CAADC
:2025C0000CA852F8232000EB830300EB81006FF07F4100E01A688A1A43F8042B8342F9D1BF
:2025E0000124069B002B0EDD012B00F06A81022B09D1019B5A1E0CAB0CA953F82230C3F31E
:20260000150341F82230022D7FF433AF32463B46B949002012F070FF06460F46002C3FF407
:2026200028AF06989FEDB00B00F092FB3046394653EC102B12F060FF06460F4619E70123CC
:202640000022B4E7019901328A42ABD1C9E7AB4B002213F08FFB002840F05681054608E7EA
:20266000019B5A1C9146029237E70CAB069A53F82A30CDF81C80183A0395069273B9019B18
:2026800003F18043023B0CA901EB830353F804190AF1FF3A183A0029F8D006929FED920B7F
:2026A000069800F055FBBAF1000F55EC104BC0F2DE8170AB03EBCA0B0CAA0AF101030693A9
:2026C00002EB83084FEACA030BF10809049358F8040D13F05FF822462B4613F0C5F8064638
:2026E0000F46874B2046294669E90267002213F0BBF80CAB984504460D46E8D148ABCDE9B8
:20270000013ADDF814A0BAF1000F4FF000092CDB77A3D3E90023DFF8EC815F4600240025C1
:20272000002603E0B14510DBF8E80223F7E8020113F09AF802460B462046294612F0DEFEE7
:202740000136B24504460D46ECDA019B029A03EBC9034A45C3E90045ABF1080B09F10103C9
:2027600006D0BAF1000F9946D2DA00240025ECE7A29BDDF808A0022B1EDC002B00F30F8193
:2027800013D1049C019D0834002000212C4474E9022312F0B3FEA542F9D1039B13B101F1F0
:2027A000004319460B9BC3E90001079B03F007000DF5197DBDE8F08FA29B032BF5D1BAF1F0
:2027C000000F00F07081019A049BD318D3E9004502EBCA0B7BE902672046294632463B4686
:2027E00012F08CFEA046A94604460D4622462B463046394612F080FE4B46424612F07EFEF6
:20280000019B5B45CBE90045CBE90201E2D1BAF1010F40F34881019A049B0AF1005A0AF1D8
:20282000FF3A13444FEACA01D3E9004501F1080A029192440DF5947B7AE9026720462946E4
:2028400032463B4612F05AFEA046A94604460D4622462B463046394612F04EFE42464B467E
:2028600012F04CFED345CAE90045CAE90201E3D1029C019B0026002710341C4403F110055E
:202880003046394674E9022312F038FEA542F9D106460F46039B002B40F0BF80019A0B99C0
:2028A000D2E90045D2E90223C1E90223079B03F00700C1E90467C1E900450DF5197DBDE88C
:2028C000F08F019B5A1E0CAB0CA953F82230C3F3160341F8223096E600216FF01703079154
:2028E000E0E400BFAFF30080000000000000F03F00000040FB21F93F0000F03F0000E03F22
:202900000000703EB8640100019B002B08F10108C8BF02253FF73EAE32463B46634900208E
:2029200012F0EAFD022506460F46A2E5002458E6069B0395584247EC106BCDF81C8000F02B
:2029400007FA55EC104B5A4B10EE100A0022294613F010FA002856D0564B00222046294699
:2029600012F082FF13F030FA064612F013FF504B002212F079FF0B4602462946204612F0A0
:20298000BBFD13F021FA069B019C183304F1010A06930CAB43F8240043F82A607EE6019D62
:2029A000069A002005EBC204002174E9022312F0A5FDA542F9D1039B002B48D10B9BC3E975
:2029C00000010B4601990246D1E9000112F094FDBAF1000F0DDD4AAD0124F5E8022301347E
:2029E00012F08CFDA245F8DA039B13B101F1004319460B9BC3E90201079B03F007000DF5AA
:202A0000197DBDE8F08F2046294613F0DDF9019B0CAA9A4642F8230040E6019B19465A68DC
:202A2000DB680D688C680B9903F10043CB60079B0D6002F100424A6003F0070007F10042C2
:202A40008C600E614A610DF5197DBDE8F08F0B9C01F10043C4E900030B4601990246D1E93B
:202A6000000112F049FDBAF1000FB4DCBEE7A29B022B0ADC002B11DC7FF497AE00200021BD
:202A80008BE6089BDB00029365E4A29B032B7FF48CAE48AB002600270193FBE648AB002089
:202AA0000021019387E700260027F3E60000F03F000070410000703E2DE9F04F55EC104B4E
:202AC00085B025F00043B3F1795F8DED001B039007DA10EE100A294613F076F9002800F0D3
:202AE000898022462B462046294612F0BDFE06460F4632463B462046294612F0B5FE43A358
:202B0000D3E9002382468B463046394612F0ACFE40A3D3E9002312F0EFFC32463B4612F0F2
:202B2000A3FE3EA3D3E9002312F0E8FC32463B4612F09AFE3BA3D3E9002312F0DDFC3246AB
:202B40003B4612F091FE39A3D3E9002312F0D6FC039B80468946ABB3DDE900012A4B0022E5
:202B600012F082FE42464B46804689465046594612F07AFE02460B464046494612F0BCFC0E
:202B800032463B4612F070FEDDE9002312F0B4FC1BA3D3E9002306460F465046594612F0BC
:202BA00063FE02460B463046394612F0A7FC02460B462046294612F09FFC41EC100B05B079
:202BC000BDE8F08F02460B463046394612F04CFE0BA3D3E9002312F08FFC52465B4612F0A2
:202BE00043FE22462B4612F089FC41EC100B05B0BDE8F08F45EC104B05B0BDE8F08F00BFEF
:202C0000495555555555C53F0000E03F7CD5CF5A3AD9E53DEB9C2B8AE6E55A3E7DFEB157CE
:202C2000E31DC73ED561C119A0012A3FA6F810111111813F0000000051EC100BF8B5C1F31B
:202C40000A53A3F2FF35132D10EE106A0C4620DC002D3DDB384F2F4101EA070303431DD0E4
:202C600033A3D3E9002312F049FC0022002313F08BF848B1002C04DA4FF4801343FA05F57D
:202C80002C4424EA070400262346324643EC102BF8BD332D05DDB5F5806F29D041EC100B69
:202CA000F8BDA3F213434FF0FF37DF400742F5D01FA3D3E9002312F021FC0022002313F0CA
:202CC00063F80028E0D0002C23DB26EA0706DBE717A3D3E9002312F011FC0022002313F0C8
:202CE00053F80028D0D0002C0ADB00263446CBE710EE102A0B4612F001FC41EC100BF8BDD9
:202D000024F000430D4A1E43002E18BF14460026BAE7142D08D00123C5F1340503FA05F55B
:202D2000AE1928BFE418D0E70134CEE7AFF300809C7500883CE4377EFFFF0F000000F0BFFC
:202D40009FED010B704700BF000000000000F87F38B553EC102BC3F30A511C46054681BB8D
:202D600010EE101A23F00044214329D0194600223D4B3E4C10EE100A12F076FDA542024628
:202D80000B4616DB0C46C1F30A513639294440F2FE70814221DC002947DC11F1350F34DAB4
:202DA0004CF250318D4218DC002B27A1D1E9000144DB25A3D3E9002312F056FD41EC100B80
:202DC00038BD40F2FF708142E0D110EE100A194612F094FB41EC100B38BD002B1CA1D1E902
:202DE000000107DB1AA3D3E9002312F03DFD41EC100B38BD18A1D1E9000115A3D3E90023D0
:202E000012F032FD41EC100BF3E724F0FF4424F4E004363144EA0153104619460022144BED
:202E200012F022FD41EC100B38BD24F0FF4424F4E00444EA015343EC102B38BD08A1D1E99D
:202E40000001B6E7AFF3008059F3F8C21F6EA5019C7500883CE4377E9C7500883CE437FE1D
:202E600059F3F8C21F6EA58100005043B03CFFFF0000903C10B5054C237833B9044B13B1A0
:202E80000448AFF300800123237010BDD0070020000000004472010008B5034B1BB103496F
:202EA0000348AFF3008008BD00000000D407002044720100A3F5803A704700BF174B002BD9
:202EC00008BF134B9D46FFF7F5FF00218B460F461348144A121A13F057F90E4B002B00D02D
:202EE00098470D4B002B00D098470020002104000D000D48002802D00C48AFF3008011F0A9
:202F00008FFA2000290004F025FC11F075FA00BF000008000000000000000000000004206F
:202F200070030020D4300020000000000000000000B585B00346002101AA44F20100CDE9EE
:202F40000111039300F004F805B05DF804FB00BF72B6094B1B68DB0700D500BEBFF34F8F11
:202F60000649074BCA6802F4E0621343CB60BFF34F8F00BFFDE700BFF0ED00E000ED00E049
:202F80000400FA050378052B02D0094B1B681847084BD3F88424D3F8803413F0FF0FF4D160
:202FA000054BD2B2052A08BF1846014B1B681847EC0700200070024008650100014B0248F2
:202FC0001B681847EC0700200C650100012803D0022809D020B17047054B06481B68184783
:202FE000034B05481B681847014B04481B681847EC07002000650100FC6401000465010096
:203000002DE9F04F87B0002504460F4690469946029500E0013562680123566821460022C9
:2030200002A8B0470028F5D18DF80600049065B3824683460AE09DF806306668023B76689B
:20304000B0479DF806309B445D451ED962680123566821460DF1060204A8B047626801238C
:20306000566821460DF1070204A8B0479DF80730BB424FF00002214604A8DCD1D04508D0CA
:203080000AF1010A5FFA8AFAD5E7052007B0BDE8F08F109A9DF80630136089F8003089F877
:2030A00001706168023B4D6809F102022146A847002007B0BDE8F08FF0B5054683B03B48EF
:2030C00008F0F8FA044610B1204603B0F0BD384A3849394B14700C604822214637481C60F2
:2030E00013F052F836482146482213F04DF8002D54D095E80700334B83E80700002847D0E8
:20310000002006F025FF08B1852844D12E4D2B7A002B49D0013BDBB205F10C024FF0030E79
:203120006E68274FDFF894C01EFB032E05F109046378EBB1A278611C1144013B51FA83F16D
:20314000224408E003F00F0307EBC30391421D60306858600CD012F8013B1806F2D503F0CA
:203160000F030CEBC30391421D6030685860F2D103347445DCD10B238DF8043012483368A4
:2031800001A99847044600289ED008F0D5FA9BE70E4A1A60B4E7FFF7CBFEB7E7094B0B4A0A
:2031A0005D601D721A60ABE76E68E4E7852F0000552A0020880800208C080020F807002040
:2031C00040080020EC070020386501009535000010B508F0CBFB68B108F0D0FB044648B962
:2031E000064806F0C9FE034628B1FFF7A1FE2346184610BD0823184610BD00BFF864010007
:2032000008F0A4BA09F0A2B94FF0804303E0D3F83824D10707D5D3F838249207F7D5024B6B
:2032200002481B6818477047EC0700201065010000B5054B83B082221B688DF8042001A871
:20324000984703B05DF804FBEC0700202DE9F043057A83B0002D5ED005F1FF3E5FFA8EF312
:2032600000F10C024FF0030E00F10901334FDFF8D4C01EFB032E0C4666780022964204EBB4
:20328000020319D094F8028013F9089013F80830B9F1000F0BDB03F00F0307EBC3031B686C
:2032A0000132002BEAD0112003B0BDE8F08303F00F030CEBC303F2E70334A645DCD100266A
:2032C0001E4FDFF880C0324602EB42020A445378EBB1002423460CE003F00F0307EBC303D6
:2032E000186045682D685D6055780134E3B29D420CD99578134413F905E05B5DBEF1000F31
:20330000EADA03F00F030CEBC303E9E7057A0136F2B29542D8D80A4A13681BB11A681368DE
:20332000002BFBD1106043680B228DF804201B6801A9984703B0BDE8F08300BF40080020A7
:2033400088080020F8070020024B1878003818BF01207047542A0020030710B5044604D54A
:203360002046BDE8104008F089BF08F0A1FC204608F0DCFF2046BDE8104008F07FBF00BF94
:2033800009F0C2B9014B1868704700BF88080020F0B40E4B1F688FB13E7A96B100231C467F
:2033A0003A4602E0DCB2A6420BD9557A854203F1010302F10302F5D101B10C703846F0BCAD
:2033C00070473B681F68002FE6D1F7E788080020436811461B68184700F00F03082B0AD89D
:2033E00002064CBF054A064A02EBC303186810B143681B6818471020704700BFF8070020D5
:203400004008002038B5094B1C6864B1054602E023681C683CB1636829461B68204698473F
:203420000628F5D038BD062038BD00BF8808002038B50D46044608F00DFB18B1054B1B78E4
:20344000022B01D0082038BD29462046BDE8384008F010BB552A002038B50D46044608F07B
:20346000F9FA18B1054B1B78022B01D0082038BD29462046BDE8384008F08EBB552A0020C0
:20348000F8B543689B6805460C4616461BB19847062800D0F8BDEEB92B7AA3421CD9093516
:2034A00004EB44042C44677897B133463A469A420BD9A378A2190136D05CFFF74DFFF3B265
:2034C000BB4205D262789A42F3D800231B78FFDE0020F8BD0720F8BD7378FFDE70B54368BB
:2034E000DB6805460C4603B198472B7AA3421AD9093504EB44042C4466789EB100252B4634
:20350000324693420BD2A37862190135D05C09F0FBF8EBB29E4205D962789342F3D30023AA
:203520001B78FFDE70BD00235B78FFDE43681B6903B118471846704770B50A4B1D687DB197
:203540002E7A4EB100242146013400222846FFF797FFE1B2B142F7D32B681D68002DEFD193
:2035600070BD00BF8808002070B5094B1D6875B12E7A46B10024214601342846FFF7AEFF1B
:20358000E1B2B142F8D32B681D68002DF0D170BD8808002070B503780446852B00F2BF802C
:2035A000DFE813F00002B201BE003A026602E300EA00BD00040117012A01BD00BD00BD0021
:2035C000BD003D01BD00BD00BD00BD00BD00BD00BD00BD00BD00BD00BD00BD00BD00BD009A
:2035E000BD00BD00BD00BD00BD00BD00BD00BD00BD00BD00BD00BD00BD00BD00BD00BD00FB
:20360000BD00BD00BD00BD00BD00BD00BD00BD00BD00BD00BD00BD00BD00BD00BD00BD00DA
:20362000BD00BD00BD00BD00BD00BD00BD00BD00BD00BD00BD00BD00BD00BD00BD00BD00BA
:20364000BD00BD00BD00BD00BD00BD00BD00BD00BD00BD00BD00BD00BD00BD00BD00BD009A
:20366000BD00BD00BD00BD00BD00BD00BD00BD00BD00BD00BD00BD00BD00BD00BD00BD007A
:20368000BD00BD00BD00BD00BD00BD00BD00BD00BD00BD00BD00BD00BD00BD00BD00BD005A
:2036A000BD00BD005101860060011C02E301E3008C4B8D49D3E9000290478C4B1C684CB1D8
:2036C000894D636820461B682946984723681C68002CF6D1864C63680BB10D209847FFF7B5
:2036E00043FF01F075FB834B1B68002B00F0FD810120814D08F008F92A78931EDBB2062B44
:2037000000F215827D49CB5C13B106F007FC2A78022A40F00C8208F073F901232B7070BD9A
:20372000754D2A78931EDBB2062B00F2CD817349CB5C13B106F0F2FB2A78022A40F0C481A9
:2037400008F05EF96A4B5B6803222A700BB102209847664B1D6845B16B6828461B682146CF
:2037600098472B681D68002DF6D15E4B2146D3E90002BDE87040104790F902308278002B04
:20378000B4BF5F4B574B02F00F0203EBC203D3E90002214690470028C1D0A0780207BED050
:2037A0000307BCD4BDE8704008F054BA504B5B680BB1082098474D4B1D68002DAFD06B6857
:2037C00028461B68214698472B681D68002DF6D1A5E7474B5B680BB109209847434B1D68EE
:2037E000002D9CD06B6828461B68214698472B681D68002DF6D192E73D4B5B680BB10A2070
:2038000098473A4B1D68002D89D06B6828461B68214698472B681D68002DF6D17FE7344B3E
:203820005B680BB10F209847304B1D68002D3FF476AF6B6828461B68214698472B681D6854
:20384000002DF6D16BE72C4C2378062B00F04F8103F0FD03052B7FF462AF08F0DBF8022387
:20386000237070BD244DFFF77FFE08F063FE2A78931EDBB2062B31D82049CB5C13B106F0E7
:203880004DFB2A78022A29D108F0BAF8174B1C6800232B704CB11B4E636820461B68314639
:2038A000984723681C68002CF6D10E4B1549D3E9000290470E4B5B680BB10E2098472B7853
:2038C000023BDBB2062B3FF62AAF0C4AD35C002B3FF425AFBDE8704006F020BB082AD5D12A
:2038E000D2E700BF400800201465010088080020EC0700208C080020552A0020F064010003
:20390000F8070020186501009C4DFFF72DFE01F055FA2A78931EDBB2062B00F2D980984983
:20392000CB5C002B00F0D480022A03D0082A01D008F070F8934B5B6802222A700BB1012053
:203940009847914B2146D3E9000290478F4B1D68002D3FF4E4AE6B6828461B682146984755
:203960002B681D68002DF6D170BD844D2B78032B00F0C68008F00CF800283FF4D0AE2A78BF
:20398000931EDBB2062B40F2EB80814806F098FA2A78022A01D0082A01D108F031F80623DD
:2039A0002B7070BD754B1B78032B00F0A580082B00F0A280734B5B680BB100209847754B68
:2039C0001D68002D3FF4ABAE6B6828461B68214698472B685D68002DF6D170BD674D2B78CF
:2039E000032B7FF49CAE08F0E1FD00283FF497AE2A78931EDBB2062B00F2BB806049CB5C58
:203A000013B106F08BFA2A78022A40F0B28007F0F7FF04232B7070BD584D2A78082A5CD0B6
:203A2000931EDBB2062B00F286805549CB5C002B00F08180022A00F0878005232B70514BBC
:203A40005B680BB1032098474F4B2146D3E9000290474E4B1D68002D3FF461AE6B68284681
:203A60001B68214698472B681D68002DF6D170BD444B5B680BB103209847434B4649D3E95B
:203A800000029047414B1C684CB1434D636820461B682946984723681C68002CF6D1374D28
:203AA0002B78062B1ED0082B0BD09A1ED2B2062A4DD833498A5C002A49D0022B01D007F00B
:203AC000A9FF02232B7070BD082A7FF43BAE37E62F4806F0F5F92A7826E702232B7007F0E5
:203AE000A3FFACE707232B7070BD207A01E607F091FF0823237070BD2848FFF74BFD59E7BE
:203B000008F054FD00283FF435AF2A78931EDBB2062B2BD81A49CB5C13B106F0FFF92A782B
:203B2000022A23D107F06CFF04232B7022E7082A7FF4F3ADEFE5164806F0C2F92B78022B40
:203B400002D0082B7FF479AF07F05AFF75E7104806F0B6F92B78022BB3D0082BB1D0AEE780
:203B60000749CB5C002B7FF414AF0EE7082ADBD1D8E7082A7FF44DAF49E700BF552A0020AC
:203B8000F0640100EC0700204008002088080020080000208C080020206501001C650100C1
:203BA0004360CA699A4205D38A6902600B67CB610020704701F1280202608B67002070476A
:203BC000F0B504680E7A002C00F07284A4F212347C2C00F2C1827C2C00F2BE82DFE814F0DC
:203BE00074020003DE02CF02C7022A0307032303BC02BC02BC02BC02BC02BC026702D702BF
:203C0000BC02BC02BC02BC02CC010F03E602BC02BC02BC02F401EE038C03BC02BC02BC02FC
:203C2000BC02FF00CB034803BC02BC02BC02BC02BC02BC026402BC02BC02BC02BC021901C2
:203C40009B039303AC035703BC02BC02C3038403B40339035F03BC02BC024103DB0150031A
:203C6000ED00BC02BC023203DB00F503BD00BC03BC02BC02BC02BC02BC02BC02BC02BC0267
:203C8000BC02BC02BC02BC02BC02BC02BC02BC02BC02BC02BC02C900D303BC02BC02BC0221
:203CA0006703BC02BC02BC02BC02AC00BC02BC02BC02BC02AC00BC02BC02BC02BC02BC029C
:203CC000BC027D00C002BC02BC02BC02BC02B800BC02BC02BC02BC02B80001240025002A13
:203CE00000F0CD8307795755A3424FF00005057140F27C83171901343D70B04D0F7D2D6858
:203D00002D78AF4200F0B0838F7DAF4209D10025A342057140F24D85254601340AB10779B4
:203D20005755DFF8A0C2A64F9CF800503F780135EDB28CF800507BE1012500240AB1077984
:203D400017554024AB42047140F289836C1CC6E701240025002AE2D1E3E701240025002A59
:203D600040F031848D7D0571A34240F262830134FFE001250024002A00F03D8307791755BE
:203D8000AB424FF00504047140F27E83274602EB050C6C1CFDE201250024002A40F011843B
:203DA0000624AB42047140F23F8301350C7D0471AB4240F291836C1CD4E701250024002A65
:203DC00040F003840524AB42047140F228836C1C2425A342057140F27583651CE0E7012401
:203DE0000025002A00F0FA83077957554FF0000CA34280F804C040F29084651C0027AB4294
:203E000002F804C0077140F2F383541901352770F3E001250024002A00F0EF8307791755F5
:203E2000AB424FF02404047140F2C183274605F1010C002463455755047140F2A98325461D
:203E40000CF101071024BB4202F80C50047140F29083254607F1010C01246345D555047140
:203E600040F2788325460CEB04070524BB4202F80C50047140F25D83254607F1010C2424ED
:203E80006345D555047140F24A8325460CF101070124BB4202F80C50047140F23683254629
:203EA00007EB040C03246345D555047140F228830CF1010702F80C40BB4291F816C080F896
:203EC00004C040F218837C1C0425A34202F807C0057140F20B8302EB040C2F4601342425C4
:203EE000A3428CF80070057140F2FB822F46651C1755AB424FF00204047140F29F822746FB
:203F000002EB050C6C1C0225A3428CF80070057140F2DD822F46651C1755AB424FF005047D
:203F2000047140F27C82274602EB050C6C1C2425A3428CF80070057140F2C4822F46651CE3
:203F40001755AB424FF00604047140F26D82571901353C700F7D0771AB4240F2BD826C1CED
:203F60005755A3428D7D057140F26382171901343D70124D2D6851E001270024002A00F07C
:203F80004082057915559F424FF00004047180F0F5827D1C39E101250024002A40F0178306
:203FA0000224AB42047140F249826C1C0225A342057140F28C82651C04E700BF900800204F
:203FC000562A0020582A002001240025002A00F09883077957559C424FF00205057180F0EA
:203FE0005883671C1555BB424C7E047140F2E48202EB070C7D1C8CF800400024AB42047142
:2040000040F221826C1C0AB107795755C64D91F814C02D682F78BC4500F01A82DFF810E359
:20402000DFF810C36F788EF8007000258CF80050BD423FD3BD4F3D780135EDB23D70AE42BC
:2040400040F2CA810925A342057140F25583651C002A00F0128307791755AB424FF0040400
:20406000047140F2B682274602EB050C6C1C8CF800700F7AAD4D2D78AF4240F2AC8305EB10
:20408000450501F10907DFF8A0C217F805E080F804E03D449C42CCF8005080F07E82671CE5
:2040A000002A7FF46EAFACE101240025ABE701250024CDE70725A342057140F29281651C92
:2040C000002A7FF45BAE96E1002A00F0EB8204791470012B4FF00B04047140F2238302254D
:2040E0000127D455AB420F7D077140F25B8205F1010C022463455755047140F2448225461A
:204100000CF101070224BB4202F80C50047140F22B82254607F1010C02246345D5550471F0
:2041200040F213820CF1010702F80C40BB4291F819C080F804C040F2F7817C1C0025A34286
:2041400002F807C0057140F2E581171901343D70764F00253D7072E7002303601846F0BDFD
:20416000002A00F0F282057917460124C4E5002A00F0F28205794FF0010C0027CCE7002AAC
:2041800000F0EC82057901274FF0000CBAE7002A00F0FF8207799446012468E7002A00F0AC
:2041A000D78207794FF0010C0025A2E75E4C002A00F0E68207792468944601258CF8007000
:2041C00024780F7DA74200F0B9818F7DA7427FF414AF0A249D42047180F0F5826C1C00E6A2
:2041E000002A00F0D28204790125002779E7002A00F0B08290F804C0012400279EE7002A94
:2042000000F0C182047901250027DFF81CC1D455DCF80040AB426778077140F2A08102EB2C
:20422000050C0135CAE7002A00F0B1820579174601248CE7002A00F08482047901274FF0C2
:20424000000C71E7002A00F0A7820779944601246DE6002A00F08E82047901274FF0000CCB
:2042600028E6002A00F0A18207799446012436E6002A00F000821446077927700125BCE683
:20428000002A00F08E820779944601243BE6002A00F07282057901274FF0000CE5E5002A61
:2042A00000F0608290F804C0012400270CE61E4C0125276800241AB190F804C002F804C08A
:2042C0003C780F7DA74200F0E9808F7DA7427FF438AD0224AB42047140F270822C460135BB
:2042E000002A7FF42CAD2CE5002A00F04782057901274FF0000CCBE5002A00F0BC810479DF
:204300009446012577E6002A00F01682057901274FF0000C96E5002A00F0458207794FF082
:20432000010C002585E500BF90080020572A0020562A0020582A0020002A00F0308205793D
:204340004FF0010C002787E5002A00F00F8205794FF0010C0027A5E5002A00F0F48105794B
:204360001746012404E6002A00F0218205794FF0010C002783E5002A00F0F68190F804C0DE
:20438000012500243AE5002A00F0EA810779944601248CF80070C14FC14D3F682D7897F8C3
:2043A00001C0AC4540F2148297F802C03D44A34215F80C5005716CD9651C7CE7002A00F0AA
:2043C000D7810579012700240CE6002A00F0B681047917460125BCE540F299330360012055
:2043E000F0BD40F26D3303600120F0BD4FF4617303600120F0BD0524AB42047144D96C1C95
:20440000C9E79F42027180F0B9807D1CA34C2468AB426778077140F2A2800135D0E640F225
:20442000553303600120F0BD40F2573303600120F0BD40F2593303600120F0BD40F2513331
:2044400003600120F0BD4FF44F7303600120F0BD0525A342057140F21781651CDBE440F234
:20446000833303600120F0BD0D6AA3422D7805713FF652AC40F2893303600120F0BDA342A7
:204480000271B3D9013438E440F26E3303600120F0BD40F2723303600120F0BD0324AB42AC
:2044A00004713FF61BAF40F2773303600120F0BD08240471002B7FF407AE40F212330360AD
:2044C0000120F0BD40F2563303600120F0BD40F2523303600120F0BD4FF4567303600120AA
:2044E000F0BD4FF4547303600120F0BD40F24F3303600120F0BD4FF4537303600120F0BDB5
:2045000040F24B3303600120F0BD40F24A3303600120F0BD40F2193303600120F0BD40F2F9
:20452000493303600120F0BD4FF4467303600120F0BD4FF4527303600120F0BD02249D4263
:20454000047180F0F4806C1C40E540F2173303600120F0BD40F2453303600120F0BD4FF48A
:204560004A7303600120F0BD40F2163303600120F0BD4FF4517303600120F0BD40F22733DD
:2045800003600120F0BD40F2153303600120F0BD40F2433303600120F0BD40F22633036078
:2045A0000120F0BD4FF4457303600120F0BD40F2423303600120F0BD40F22E330360012012
:2045C000F0BD0779BCE40779CAE40779A4E407798EE440F2213303600120F0BDA3420271D7
:2045E00040F29B80013400259C420571C0F0938040F2353303600120F0BD2424AB42047188
:20460000D5D96C1C00259C420571C1D2013410259C420571ADD2013401259C42057199D201
:204620002C4405259C42057183D2013424259C420571BFF474AF013401259C420571BFF42D
:2046400064AF2C4403259C420571BFF459AF01348D7D05719C42BFF44EAF01340425A3421A
:2046600005717FF643AF01342425A34205717FF638AF651C94E40125BFE40424AB420471DC
:20468000A7D90F7A6C1CF5E440F2413303600120F0BD40F22D3303600120F0BD900800205E
:2046A000582A00200B24012B04713BD902240D7D05719C42BFF476AF01340225A3420571E1
:2046C0007FF661AF013402259C420571BFF44CAF01340225A34205717FF637AF01344D7EE5
:2046E00005719C42BFF420AF013400259C420571BFF410AF01342BE54FF4487303600120FD
:20470000F0BD02259C420571C3D201344D7E05719C42BFF451AF651C6FE44FF44D7303609B
:204720000120F0BD40F2133303600120F0BD4FF44B7303600120F0BD012468E70125FFF740
:2047400035BB0124CBE7012413E40124FFF7D5BA0124B2E70124C8E70124BAE70124B2E7B6
:20476000012418E6012479E701243CE7012469E70124CBE701246BE7012452E701245BE7C1
:20478000246801251CE5012540E601248FE70124DEE4374601246DE40124FFF719BB012491
:2047A0003AE7012402E401242CE701245CE701243CE740F28E3303600120F0BD4FF45F73AC
:2047C00003600120F0BD40F2333303600120F0BD00231B78FFDE024A002313601B78FFDEFA
:2047E0009008002070B90B681A7B202A01D0062070471A4652F80E1F9961918892799A77D2
:2048000099837047032070474360CA699A4210D38A6910B40260C8690C6FC01A1C441A44F9
:20482000C86100380C6718BF01205DF8044B8A61704701F12802026000208B67704700BF60
:204840002DE9F0470B7888B00D4606460E2B14D8DFE803F008180808130D28131318130801
:20486000080808000024204608B0BDE8F0874B78DA0930D15B09012B4CD00624204608B027
:20488000BDE8F0870368002403F134022046C3E91E44C3E920445A671C845C62DC6208B0AA
:2048A000BDE8F087027A8B78002A00F06581817A0930002900F05E81F17A415C9942D1D0AD
:2048C0001B061ED4EF7807F0FD03012BCAD0002F65D00324C7E713F0600FC3F3411200F0FD
:2048E0009180012AC9D18B78212BC6D1B1F80720072AC2D10168681C183100F073FA04468B
:20490000B1E7EC78002C00F09D80032C14BF03240024A8E78B780768202B00F09B80222B71
:20492000ABD1B1F80730002BA7D1B1F8035097F820303D8405F0010203F0010393421546BD
:2049400090D0C3691BB1C2F10301C9B29847002D88D1337A012B40F20B81737B06F10C04DC
:20496000002B00F00381B37BE05C07F049FE337A012B40F2FD80737B012B40F2F780B37B77
:2049800023442C46587807F03BFE07F13403C7E91E55C7E920557D62FD627B6763E73568C0
:2049A000012A05F10C0140F2DF80727B012A06F10C0340F2D7800691B27B70490591134427
:2049C000AC6A93F80180002C60D1EA6FEB6AAC67C5E91F42002B00F0B480296B1846002225
:2049E00005F1240383E803004046EA6205A9FEF733FD0446F369002B3FF435AF3046002108
:204A0000984730E703F01F03012B7FF436AF8C78062C7FF432AF05A8039200F0D5FC03AACD
:204A200000920746EA78297930463B46FEF7E8FA05283FF418AF039A3946681C00F0D2F943
:204A4000044610E7F369002B3FF40CAF30460121984708E7B1F80720072A7FF40EAF3B735B
:204A6000B1F80730DBB27B7300200E37CDE90573079000F08BFF002005A9FEF7D9FC044655
:204A8000002867D0002000F089FFECE6D5F88490686A4C4528BF4C4605F1340A224651465D
:204AA00011F04AFBE86FEA6AEF67A9EB04030AEB04010444C5E91D13C5F88040002A43D03A
:204AC00005F12C0797E8030005F12404002284E80300EA62002B3BD091461BE0696F686A7E
:204AE00011F02AFBD5E91D32A96AC5F880100B44521AC5E91D32F36913B1002130469847D5
:204B0000EB6A13B397E8030084E80300AB6FC5F82C90EBB1AA6A9342E0D2696F686A1A46B5
:204B200011F00AFBD5E90932A96FE967521A0B44C5E9093253B1404605A9FEF78DFC04466A
:204B400058E700236B6255E700236B62002451E76B6AEFE70A4B049603A9039300F020FCB6
:204B600004468FE73B78FFDE7B78FFDE2B78FFDE6B78FFDE0B78FFDE5378FFDE094800007C
:204B8000E547000010B503681C8CE40784B015D50B46017A012916D9417B00F10C0481B134
:204BA000817B605C91060CBF0124002401A9CDE901320394FEF73CFC04B010BD082004B0DE
:204BC00010BD0B78FFDE00235B78FFDE0368D3F880007047F0B50468238CDB0783B022D59C
:204BE0000546002016460F4600F0D0FEA26F42B9636AE3B11124002000F0D0FE204603B042
:204C0000F0BD964228BF1646616F3246384611F093FAD4E91D239B1B3244C4E91D23C4F8A6
:204C200080600024E7E70824204603B0F0BDC4E909762A7A012A12D9697B012905F10C02B8
:204C40000FD9AB7B0849009113440C34587801946946FEF701FC041E08BF9224CBE75B78A3
:204C6000FFDE1B78FFDE00BFA13B0000002070472DE9F04F4B6885B0CDE900020C46002B03
:204C800071D006F0E3FFE568019B9D4228BF1D468146002D7CD04FF0000A5646D3464FF06C
:204CA0000108D4E90113AB421F4628BF2F46E9B13A4609EB060011F03FFAD4E90223D21B4F
:204CC000DB1BC4E90223C4F804B0ED1B3E442AB3002B08BF4FF00008002DE2D1009BC3F8C6
:204CE00000905E60404605B0BDE8F08FABB120463B4650F8101B4A68D2F804A009EB060235
:204D0000D047D4E90223D21BDB1BC4E90223ED1B3E445AB14FF0010ADAE7E368BAF1000F40
:204D200004D15BB99846002DBBD1D7E722681268126822604FF0010A002BF3D02168F1B1D2
:204D4000CDF808B003E0A36821680133A3604B6800225F6802A80123B8470028F3D1206152
:204D6000002D9ED1BAE70B681B681B68002B88D18B68002B85D1036043609846B2E7616047
:204D8000002EABD0019BB34288BF4FF00008A5E72E464FF00108A1E7054B0528187004D0A2
:204DA000044A137823F0020313700348FEF7F2BB592A00205A2A00204865010008B50020C0
:204DC000FEF7CAFABDE808408020FEF7C5BA00BF08B50020FEF7D4FABDE808408020FEF738
:204DE000CFBA00BF70B5C38893421E4628BF1646934284B00D4612D8002400200394CDE9A8
:204E0000015600F0C3FD01A98020FEF711FB044688B1002000F0C2FD204604B070BD802007
:204E2000144606F007FEB4FBF0F202FB1044B4FA84F46409E1E706F0E3FF80280BD1094A31
:204E4000094B92E8030083E80300002000F0A6FD204604B070BD002000F0A0FD10242046D2
:204E600004B070BD80650100B80800202DE9F04F0B780E2B89B018D8F3B1013B0D2B1BD846
:204E8000DFE803F01F0E281A354C1A1A1A1A0E666F07B24B1B78012B02D00120FFF77CFFF6
:204EA0000024204609B0BDE8F08F852B04D1AB4B1B78032B00F040810624204609B0BDE8B0
:204EC000F08FA64B1B78032BF6D00320FFF764FF0624E6E7A24804F077FF0028E0D0A14B50
:204EE00001221A60BFF36F8FBFF34F8FD8E705230DF115008DF8143006F0EAFE9DF815305A
:204F0000994E002203F01F043260032C00F2B980DFE814F0E800B90099008D00C878032889
:204F20000D46C9D0904E3368002B00F003810022716832609847044600287ED13368002B7A
:204F400000F00581AB78002BAAD106F0E3FEA8E7824B1B78002BA3D00020FFF71DFF002458
:204F60009FE74FF08043D3F8383413F0010F7B4B1B7806D0022B93D00220FFF70DFF002458
:204F80008FE7012B89D18BE7BDF81B30002B00F0D880092B28BF09239946FEF7F3F90546DE
:204FA000002800F0DB81BB464FF0090ACDF80CB04FF0000801E008F101086A6801235768CA
:204FC0002946002203A8B8470028F4D12A682B7A15681C44C244E4B2002DE7D1634D6449B7
:204FE00028464A4611F0A8F82C71A5F802A0FEF7ABF918B1EB7943F02003EB71FEF7C2F90E
:205000005C4BBDF81B2018600020C3E90159DA6000F0BCFC58498020FEF71EFA04460028B9
:2050200000F09F81002000F0B9FC062C05D105A8FEF7E8F90446002C73D006F0D7FE204626
:2050400009B0BDE8F08F9DF81900020707D005A9FEF7C2F906280446EDD19DF8153013F074
:20506000600F0ED19DF816303C4A9DF819401278012B00F0B980032B00F0A680002B00F055
:20508000C6800624D9E79DF8190003A9FEF780F90546002859D09DF80C1005AAFEF798F996
:2050A00006280446C7D19DF8152012F0600FC4D12A4B9DF80C101B78D20940F014819DF822
:2050C00016200B2AB9D1052B40F0B280BDF81730FF2B00F2FC809DF817202846FEF7D0F9BD
:2050E0000446A8E713F0600FC3F341179FD1DB0948D19DF81630032B00F09C80092B00F0B1
:20510000A880012B93D1BDF81730012B8FD1FEF71BF9002800F0D980184A137823F00203D0
:20512000137033686BB106F06BFE044600287FF4B7AE0AE70E2480E70420FFF72DFE062493
:20514000AFE606F049FE0024ABE6102475E70C4B1B68082B33D006F03FFEA2E6592A0020CA
:20516000C00800205C700240B8080020C40800204C650100A0080020886501005A2A002061
:20518000300100109DF81620062A00F08780082A73D0002A7FF44BAF7B497C4B09781A802A
:2051A000890744BF02221A7078490DF115000222FFF718FE0446062C7FF43DAF37E7744BF2
:2051C0001B68002BC7D16BE625073FF55AAFBDF81730002B7FF455AF052A01D0200727D112
:2051E000204606F037FD9CE721073FF54AAFBDF81730002B7FF445AF052A01D0230717D1A7
:20520000204606F055FD204607F090F889E7052A01D027070CD1204606F028FD5B49034612
:2052200002220DF115000B80FFF7DCFD044602E7082402E7BDF81730012B7FF4F8AEFEF75F
:2052400083F8002841D0504A137843F00203137067E7504C2378043B012BE9D89DF817302D
:20526000BBB3012B33D1FEF767F92378052B3FF458AF0520FFF790FD53E7464A1278052A0B
:2052800047D0042A7FF4D3AE404B1F703F490DF115000122FFF7A6FD04468CE79DF81830CA
:2052A000022B3FF471AE032B36D0012B7FF4BFAEBDF81B30002B3FF444AF37490DF115004B
:2052C0001222FFF78FFD044675E70F24B5E60724B3E6FEF749F92378042B3FF422AF0420B7
:2052E000FFF75AFD1DE79DF816705FB30A2F7FF4A4AE052B9CD128460192FEF717F9234923
:20530000019A03460B700DF11500FFF76BFD044691E61E4A1370B9E7BDF81B30002B3FF413
:2053200010AFBDF819109DF8170000F01DFB014600283FF47CAE0A780DF11500FFF752FD76
:20534000044638E7052B7FF473AF10490DF1150002220F80FFF746FD04466CE64FF0090AD9
:205360003CE606F04DFD802808D10C4B93E8030086E80300204600F011FBD2E6204600F094
:205380000DFB102459E600BF5A2A0020C408002034010010592A00206C65010080650100A3
:2053A00038B505460C4606F02BFDA84207D194E80300044A82E803000023184638BD1023A0
:2053C000184638BDB808002008B1402303600148704700BFC4080020F0B40D7A0DB101F195
:2053E00009050468002C59D06FF4AB763444142C00F24A81142C00F24781DFE814F05400CC
:20540000E700EE00F500FC000301090110011701450145011E0125012C0145013B003301DC
:205420002700390115003F0101250024002A40F0DB818A8AAB424FEA1222027140F23381EF
:2054400040F26D1303600120F0BC704701250024002A40F0CD814A8AAB424FEA1222027120
:2054600040F226816C1C8A8A0271A34240F27B81651CDEE701250024002A40F0B7810A8A7B
:20548000AB424FEA1222027140F217816C1C4A8A0271A34240F26C81651CDCE709240471BC
:2054A000002B00F0F680002A00F0A48104791470012B4FF00404047140F2F0800227012641
:2054C00094559F422D78057180F089817E1C0024B342D555047140F27D812546771C0024C9
:2054E000BB429555047140F2708125467E1CFF24B342D555047140F263812546771C012438
:20550000BB429555047140F2568125463E190124B342D555047140F24981254637190024D0
:205520009F429555047180F03C8125467E1C09249E42D555047180F02F812546771C2124EA
:205540009F429555047180F0228126467C1C09259C42D655057180F0158116190134357038
:205560000E7C0671A34240F20881651C16550E8A9D424FEA1626067180F09F8057196C1CB4
:205580003E708E7C06719C4280F0F280651C16554E8A9D424FEA1626067180F089805719A4
:2055A0006C1C3E700E7D0671A34240F2DC80651C1655898A9D424FEA1121017173D22A44D2
:2055C000117040F26D13036001203DE7002A00F0B38004790127002672E7002A00F0A58040
:2055E00005790126002772E7002A00F0978005790127002673E7002A00F089800579012667
:20560000002774E7002A5DD005790127002676E7002A00F09E8005790126002777E7002AFC
:2056200000F0958005790127002678E7002A00F08C8005790126002779E7002A00F08380CB
:205640000579012700267AE7002A00F08A800679012400277BE7002A00F0818005791646D7
:2056600001247CE7002A78D006791746012487E7002A70D006791746012492E7002A3FF480
:20568000DFAE017911709CE7002303601846F0BC704740F2571303600120F8E74FF4AC7357
:2056A00003600120F3E740F26B1303600120EEE740F2691303600120E9E740F26713036072
:2056C0000120E4E701240122A342027173D914440122A342027169D9144400229C42027112
:2056E0005FD2013409229C42027155D2013421229C4202714BD2013409229C42027141D2F7
:2057000001340A8A0271A34237D9651CB7E60124FF229C42027153D20134D4E70124002247
:20572000A342027151D90134F2E701240022A34202714FD90134F2E701242A780271A342E5
:205740004DD90134F2E70124D1E70124CAE70124C3E70124BCE7012485E6012497E6012474
:20576000CFE70124C8E74FF4B573036001208EE74FF4B4730360012089E74FF4B373036011
:20578000012084E74FF4B273036001207FE740F26313036001207AE74FF4B17303600120B3
:2057A00075E740F25F130360012070E74FF4AF73036001206BE740F25D130360012066E760
:2057C0004FF4AE730360012061E740F25B13036001205CE74FF4AD730360012057E740F2DB
:2057E00059130360012052E70679E1E60679BDE60679CCE60422012B02717FF64FAF022489
:205800009BE700BF0B780E2B0BD8DFE803F0080808080A0C080A0A0A0A0808080800002048
:20582000704706207047F0B54B78DA0985B00C46064611D15B09012B02D0062005B0F0BDEA
:205840008C78002CF9D102681373036A002B3AD0214698472046F1E713F0600FC3F34112BD
:2058600015D0012AE9D18B78072B07D0082BE4D1F268481CB169FFF7B5FADFE7B1F8072057
:20588000182ADAD1C169601CFFF7ACFAD6E703F01F03012BD1D18D78062DCED103A8029223
:2058A000FFF792FD02AA00920746E278217930463B46FDF7A5FB0528BFD0029A3946601C06
:2058C000FFF790FABAE71846B8E700BF70B54FF0805286B0D2F8A830D2F8A42000926FEA64
:2058E00083436FEA93430B4A0B4E9BB202A80D210BF0AAFA02AD002404E015F8013B06F843
:20590000013B013402A810F047FC8442F5D306B070BD00BFA46501007C2A002038B5114BE0
:2059200053F8204023780BB9A01C38BD0020FFF74BFD217891B12246C4F101055319DCB256
:20594000234620F8141012F8011F0029F6D101335B00DBB243F44073038038BD40F20233A3
:20596000FAE700BF0C66010040B1052808D8054A105C28B1044B53F820300BB1FFF7CEBF59
:2059800000207047246601000C66010072B6024A136801331360704704090020034A1368F0
:2059A000013B136003B962B6704700BF0409002010B50446006830B1002107F01BFA54F8F0
:2059C000040F0028F8D110BD2DE9F043038883B0044643B1B3F5867F0CD1822910D001207B
:2059E00003B0BDE8F0834FF486730120238003B0BDE8F08300230380032003B0BDE8F0837D
:205A000002F0D2FFBFF35F8F19491A4B0E6800220A601F781A70FFB2BFF35F8F164D02F093
:205A2000C7FF28680028DED0DFF85090DFF8508003E055F8040F0028D5D090F84A3026FAAA
:205A400003F3DA07F5D590F8493047FA03F3DB07EFD502F0B9FA0028EBD02B68D9F80020BB
:205A6000009218464246022102F04CFAE1E700BF180900205B2A002060000020BC2B00205F
:205A8000215B000010B50C4A90F84B30126882B001330092044680F84B30084A0346802181
:205AA000203002F02FFA064B19782246002002B0BDE8104007F022BABC2B0020855A0000B1
:205AC000C130002010B4094A094C13681943116021780346012202FA03F30B43DBB223709C
:205AE00004485DF8044B07F037BA00BF180900205B2A00206800002010B5044690F84A10B0
:205B000090F8490002F012FF10B994F8480010BD01280ABF94F84800002080F0010010BD23
:205B200070B582B0044602F04FFA08B902B070BD04F12006304602F047FA05462046FFF77E
:205B4000DBFF01280FD00028F0D1002DEED1304602F020FA0D4B22462846197802B0BDE8F6
:205B6000704007F0CBB9002DE0D0094B094A1B68009300253046234684F84B507E2102F0B4
:205B8000C1F9054B28462246E7E700BFC0300020BC2B0020855A0000C2300020F8B507F0EC
:205BA00021F9304B304C187007F01CF92F4B304F187007F017F92F4922682F4B087000259F
:205BC000FF2139727B60FD60002A42D02B4E09E091F84A00F9683A72834054F8042F0B43B4
:205BE000FB60B2B392F84A3092F84910526C03F01F0343EA41131F2BC6BF03F01F0331464F
:205C00004FF0A04103F5E07342F08C0241F82350236893F84A1093F8490002F045FE2268AA
:205C200092F84A3092F8490003F01F0343EA4010012104F03BFB2168387A91F849208242BE
:205C40004FF00103C4D0FF28C2D054F8042F002AC8D10B48002107F0CDF8BDE8F840044819
:205C600002F078BEC230002060000020C030002008090020C1300020C55A000000030050A6
:205C80006800002030B5174B83B000221A6004F0CDF800BB002004F0E5F8134B134A93E8CB
:205CA0000300FF250090ADF80410062400231048ADF8005069468DF802408DF8043004F0B7
:205CC0006BFD58B901210A4804F0BAFD084804F0ABFD03B030BDFDF72BF9DBE7FDF728F9B1
:205CE000F0E700BF1C09002058660100215D000060660100014B1868704700BF1C0900203E
:205D000008B5064A13680133136002F069FA00B908BDBDE8084002F049BA00BF1C0900209B
:205D2000042800D07047FFF7EBBF00BF014B1868C00970471C0900204160806A07F00CB979
:205D4000F0B5858C83B0044617461E464DB36A2D22D182294AD14568002D62D0002300933D
:205D600004F1180204F11401284601F0A7FCD4E90431227E101E18BF0120994284F82000D9
:205D800046D0637E0133DBB26376002A3AD0032B0ED9042384F820300023A384032003B016
:205DA000F0BD244B4560C0E904551B680583836201F0C4F83946308100F008FE2060F0B13C
:205DC0001D4BC36323681C64216991B921683046463101F0C9F82368A3F84400206800F04C
:205DE0000FFE6A230120A38403B0F0BD012003B0F0BD40230022304601F078FCE6E7A0848F
:205E00000220CCE7032BC4D8022384F82030C3E7089B606898472169227E637E013121613F
:205E2000B3E7032380F820302846089B9847A5840220B4E7BC2B0020395D000010B58468B6
:205E400082B01CB194F90830002B01DB02B010BD236A002BFAD01A68002AF7D00749097832
:205E600031B11B6A23B101909847236A01981A68002302B0BDE8104000F036BD5C2A00207C
:205E80002DE9F047124C82B02468DDF828A08CB106460F4691469846656843464A46394604
:205EA000304625B1CDF800A0A847054638B92468002CF1D10025284602B0BDE8F087B379FF
:205EC000012BF8D13A463146002000F01DFBF2E7200900202DE9F04F2DED028BB34CB44E8F
:205EE0008BB0054620460295884601F0B7F9C4F8A0500346307008BBA279013A032A62D99A
:205F0000636823F07F4323F0FF03002B4FD06379032B00F02881208900F0DAFD07460028FA
:205F20004DD0D0E90F9700F0CFFDB9F1000F00F091809E493846C847337843B30027C22B46
:205F40002BD0DFF88892384600F0BEFD3278C32A69D0BF2A84BFA022327002212389934822
:205F600000F0F4FFD9F800100391084610F014F9039902468D4801F0E3FB41468B4800F09C
:205F8000F3FF414682B2029800F0B4FE337818460BB0BDEC028BBDE8F08F384600F094FDFB
:205FA000337818460BB0BDEC028BBDE8F08FC3232089337000F08CFD07460028B1D1337876
:205FC000002BE4D0BBE703900299208900F0FEFC0746002842D0039B62790893CDE90633F5
:205FE0004023ADF8163062BB238972484522022100F0ACFFA27A002A40F0B08007AB0093C0
:206000006A480DF11603002206A901F057FB70B9089B002B2ADADFF8B491674BC9F80030E9
:20602000822333708FE700223270032196E7BDF81620079B0893402A28BF4022ADF8162087
:20604000E7E700F07BFF452203460121594800F07DFFCFE73378002B99D06FE7DFF86C910A
:20606000564BC9F80030A32333706CE7BDF8163050494E4808AD07F18402009508EE903A20
:2060800008EE102AFFF7FCFE034600284DD14748099309A901F0ECFA494BD3F800908246E6
:2060A000B9F1000F67D0099B03979B46029B4D4699460AE006DD2A7AD10603D51BF800206F
:2060C0002F2A08D02D68002D52D06F68384610F063F88245EED102465946384610F064F8B4
:2060E0000028EFD1A279039F4B460293511E0123012AA94603FA01F300F0C1809A0740F134
:20610000A980D9F814A0BAF1000F00F0A38008AB2849009318EE102A18EE903A2348D047BB
:2061200099F80830590600F1C0803378002B7FF406AFA37D1A0759D5DFF8789099F90630F2
:20614000002B53DB99F816301B074FD4DFF87C901C4BC9F80030A1233370F4E61A4915488E
:2061600001F072FA4AE72189029800F0ADF9D2E6039FCDF808900F48842101F05FFA0D4865
:20618000842101F05BFA3378002B7FF4D8AE094807F1460100F0E8FE80B2A7F84400B8B959
:2061A000C123DFF828903370CDE600BF280900205E2A0020D40900206866010088660100A3
:2061C000240900207866010033090020D40000203378002B7FF4B3AE384600F011FC337873
:2061E00018460BB0BDEC028BBDE8F08F637D089AD91115D1002ACAD0DFF80891013218BF9C
:2062000001224846402301F071FAB9F8A420D9F8A810402A28BF4022484601F091FAB2E7BA
:20622000079B9A4232D00132069944D0BDF81630DFF8D0900122334801F058FABDF81620FA
:20624000B9F8A43093429ED9D9F8A8102D4801F077FA98E75D0705D5D9F818A0BAF1000F0D
:206260007FF455AF180705D5D9F81CA0BAF1000F7FF44DAF8521234801F0E0F97FE7D5F8EA
:2062800010A0BAF1000F7FF442AF37E7DFF87490B9F8A400824219D382231B4989F8063072
:2062A00048460F2201F04CFA6DE7164A1749484600F02AF939E7DFF84C90BDF81630B9F8B4
:2062C000A4209A4294BF00220122B4E7BDF816300699821A9A4294BF00220122484601F0C2
:2062E00005FA0798B9F8A430BDF81620D9F8A8101B1A9A42014428BF1A46484601F020FAD1
:2063000041E700BFD4090020686601002809002010B50446416001460C4802F0FBFC94F9B8
:206320000830002B00DB10BD206A0028FBD0036A002BF8D00268002AF5D0054BC0E90334EC
:206340000830BDE81040002300F0CEBA240900203D5E000038B50A4A137803B138BD094CC3
:20636000094D236009490A482B6001241470FFF7CFFF00F0B9FCBDE8384000F0D7BD00BFA3
:206380005C2A002020090020240900209866010084000020014B1868704700BF240900208F
:2063A00000B10068704700BF00B583B001460190044802F025FE0199034803B05DF804EB51
:2063C00002F0F4BC78000020800A002070B50D4B1C68A4B10546002601E024686CB1294619
:2063E00004F1180000F0E4FB0028F6D02046FFF7DBFF24680136002CF1D1304670BD2646DD
:20640000304670BD800A00202DE9F041164B1C682CB305460F4616464FF0000801E0246874
:20642000D4B1294604F1180000F0C2FB0028F6D094F82C30B342F2D13246394604F12D0007
:206440000FF06CFE0028EAD12046FFF7ADFF246808F10108002CE4D14046BDE8F081A046F7
:206460004046BDE8F08100BF800A00202DE9F041144B1C680CB306460F464FF00008251D04
:20648000314604F1180016B100F092FB78B1BD42284607D00FF080FE3946024628460FF016
:2064A0003DFE20B92046FFF77FFF08F101082468002CE4D14046BDE8F081A0464046BDE8D2
:2064C000F08100BF800A0020F8B50E4B1C68ACB105460E460027294604F1180000F068FB66
:2064E00010B1E38EB34204D02468002CF3D13846F8BD2046FFF758FF0137F5E72746384640
:20650000F8BD00BF800A00208B79012B00D070472DE9F04792F90630002B82B0154650DBB5
:20652000CB7C5B060C464CD5D1F8A070002F48D04B6E4BB1012B44D18A7A38460B3102B0BA
:20654000BDE8F047FFF760BF096E0191384694F80AA0D4F85C80FFF789FF204802F034FDDC
:20656000064688B3B8F1120FC146C4BF4FF01308C146B144424601994FF0000804300FF04E
:20658000DBFD394606F1180089F8048000F000FB524604F10B0186F82CA006F12D000FF09F
:2065A000CBFD0F48A6F83680314602F0B3FBB16B4B1CB363284601F079F8B36B23F07F43F5
:2065C000B36302B0BDE8F0870649A32328461022AB7102B0BDE8F04701F0B2B87800002085
:2065E000800A0020AC6601002DE9F04F2DED028B83B008EE101ADDF8389001929846FFF78B
:20660000C9FE002800F0B6800025D9F800B006462C46A34508D8454512D2019B4FF03C02B2
:206620005A55D9F800B00135631C5B4508D3454506D2019B4FF02F025A55D9F800B0013526
:20664000D6F804A050460FF0A7FD023427185F4558D801D145456DD3D6F80CB07C1CBBF1DC
:20666000000F17D09BF80030A3B1D9F800A0A24509D8454507D2019A3B235355D6F80CB046
:20668000D9F800A0013558460FF086FD02373C18544512D8454504D9D9F80030621B9A4262
:2066A00071D83046FFF77CFE0646002847D0DCB9D9F800B0A345B7D8ADE70198384AAAEB4F
:2066C000070308F10101002BACBF5B440BF10003491B28440AF0B8FB0544454553D8304690
:2066E000FFF75EFE0646B8B3D9F800B0A34507D8454505D2019A2C235355D9F800B001359F
:20670000013486E70198264AABEB040B08F10101BBF1000FACBF0AEB0B030AF10003491BA3
:2067200028440AF091FB0544454508D2D9F800309F4291D3019A3E23535501358CE715BB57
:206740005CB9BEB1D9F800304344C9F8003003B0BDEC028BBDE8F08FADB9822118EE100A06
:2067600000F06CFF18EE100A0E490F2200F0E8FF002EE7D14FF0FF33C9F8003003B0BDEC9B
:20678000028BBDE8F08F019918EE100A2A4600F0D7FF18EE100A282100F062FFD1E700BF27
:2067A000C066010068660100014806F0D5BB00BFA80000202DE93048FFF79CFA0E4B1A6898
:2067C000821A04D10D4BD3E90001BDE830880B4C18604FF47A71A2FB01BCD4E900254FEA64
:2067E000DB1040EA4C6080184FEADC1145EB0101C4E90001BDE83088880A00209004002077
:206800000148002106F0F6BAA8000020074B0848084A1B6810B4002101240470116013B176
:206820005DF8044B18475DF8044B7047E06601005D2A00209C0A00202DE9F0471E4B1B78FD
:2068400082B0054643B3DFF874A029465046DAF8007002F0ABFADAF8001019B3D5E9048903
:20686000002603E00C680E46F4B12146D1E90423994508BF9045F5D22A461048314602F0E8
:20688000B9FADAF80050AF4209D00D4B9B68019302B0BDE8F0471847FFF7B8FFD3E702B064
:2068A000BDE8F087002DEED02A46044802F0A2FADAF80050E7E700BF5D2A00209C0A00206B
:2068C000E0660100064B10B55B6804469847C4E9040121460348BDE8104002F067BA00BF44
:2068E000E06601009C0A0020084970B5496805461E4614468847241846EB0101C5E904412A
:206900002846BDE87040FFF797BF00BFE066010038B50B4B1C687CB10A4B5B689847D4E9BA
:206920000445A94208BFA04202D30020014638BD201A65EB010138BD4EF66020002138BDEE
:206940009C0A0020E0660100F8B5134F134E7C68A04735683DB102460B46D5E904018B423B
:2069600008BF824201D20020F8BD2946304602F01DFA6B680BB128469847BB68984733687D
:20698000002BF0D0D3E90467A047B94208BFB0422CBF01200020F8BDE06601009C0A00205C
:2069A00000B583B0014608300191FFF78BFF0199044802F0FBF90199034803B05DF804EBB6
:2069C00002F01EBBA00A0020B800002070B5064609480D4602F0F8FA044658B100238680D5
:2069E00080F824302946263000F0D2F80348214602F090F9204670BDB8000020A00A0020EA
:206A00002DE9F04190F8463013F0300F0446C3F3011526D190F82430042B13D8B0F84420E0
:206A200000F14601263000F065F994F8243023B3226A5200226204F108000023BDE8F0416C
:206A4000FFF752BFD0E90F672630FFF7BFFC2046FFF7A6FF46B3294638463346BDE8F041C3
:206A60001847B0F8442000F14601263000F042F92046BDE8F041FFF793BF0C4BC4E9033433
:206A800006F0F2FA0A4BA3FB00239B0A40F2DD5202FB130202F6B832226204F10800002360
:206AA000BDE8F041FFF720BFBDE8F081B56A0000B76FA5AE806830B190F82430013380F82C
:206AC0002430FFF79DBF704708B1FFF769BF7047044B02E09A88824202D01B68002BF9D16A
:206AE00018467047A00A0020F8B50288044662B140F2B9139A4217D11D4B1B788B4217D0B2
:206B000040F2B91323800120F8BD114610460BF0DBF9184B186038B343F21633038240F287
:206B2000B91323800120EFE7002303800320F8BD114B1B789B07E3D5104E114F114DB7F85D
:206B400000C0114F96E80F00203685E80F003CF806C00E4E3A883168A5F810C00023284607
:206B6000AB74FFF7B7F9CBE720800220F8BD00BFC7300020BC0A0020A82F0020C02E002066
:206B8000522A0020A80A0020A82E0020B02F00208B684A6830B40C68CD68C5600460426035
:206BA00083600B8A03828B7C837430BC704700BF38B5102205460C460FF0B0FA58B92A8A4E
:206BC000238A9A4200D038BDA87CA37CC01AB0FA80F0400938BD002038BD00BF2DE9F047D1
:206BE0000C1E8AB08046174636DD0346002502E00135AC4230D0994613F8012B5B2AF7D124
:206C0000AC4229DD08EB05032E46B2460136B44222D013F8012F5D2AF7D131490622404648
:206C20000FF0C2FAB0FA80F04009AE42B8741CDD484639460DF088F9B8B10AF1020A08EB33
:206C40000A0018F80A303A2B2CD0BB7C1BB343F216433B8201200BE02149062240460FF00C
:206C6000A3FAB0FA80F35B09BB74272C03D900200AB0BDE8F0874146224668460FF05CFAB0
:206C80000AAB1C4468460023394604F8283C0DF05BF90028ECD043F2163301203B820AB0E4
:206CA000BDE8F087023CA61BCFD00022114604E001318E4203EB4C0209D010F8013F303BF3
:206CC000DDB2092D02EB820CF2D90029BDD0054BC2F3072103EA02230B433B820120C7E7DA
:206CE000EC66010000FFFF000148002106F082B8C400002070B582B0B8B11446028848F2E7
:206D0000FE039A420E46054603D00A4B5B6A984758B1094A2B8A10680093314622462B46BF
:206D20000CF0ECFB204602B070BD4FF0FF34204602B070BD646C0100BC0A00200C2830B4A5
:206D400040D9B0F5867F94BF6FF02F046FF01F040C2935D9B1F5867F94BF0D230E23234301
:206D6000B0F5867F137016D96FF4867543191B0A0D385370907002230320B1F5867F15D92F
:206D80006FF486740C19D518240A0D391454A970D81C30BC70470C280FD90D38B1F5867FEC
:206DA00050704FF001034FF00200E9D80C29F0D90D39115430BC0130704701200023DCE74A
:206DC0004BB2CCE703015CB2C2E700BF2DE9F0411E0C13F07F474FEA06461C4615460B46BC
:206DE00014BF01210021CEB1013124F0FF080231C01A2A46FFF7A2FFCFB1230E2B54421C0F
:206E00001EB3230CAB540230B8F1000F02D0230A2B5401302C540130BDE8F08134F0FF08E8
:206E2000E5D14CB9BDE8F041C01AFFF787BF6EB1230C2B540130EAE70131C01AFFF77EFF5D
:206E4000002FDAD1002CE7D0E4E71046B8F1000FDDD1002CE0D0DDE7F8B50E689DF818700E
:206E60000C461D4616B902602360F8BD03689F550B6801330B600068114618442A460FF0F9
:206E800069F923682B442360F8BD00BFF8B5069D401A29461F46FFF751FF394604461018EA
:206EA0002A460FF049F92819F8BD00BF2DE9F04F83B092460C9A9DF8344001940132002471
:206EC0009846834699460092274625468E4604E0009B01349C42274623D818F807C0019B81
:206EE00008EB0706A6EB09069C450AEB0502ABEB0E00314602D00C9BBB42E9D1FFF71EFFB7
:206F0000054449460AEB050032460FF015F90134009B08EB040901349C423544DE4627462D
:206F2000DBD9284603B0BDE8F08F00BF08B506F09BF8014B188008BD442A0020024B18882F
:206F4000013080B218807047442A0020F8B504460F4616461D46AC2200210FF015F9677112
:206F6000A6712581F8BD00BFF0B501220023016002710B7002680F461378017943EA811321
:206F800013700268437911781B0103F030030B4313700268837A117803F00F030B431370E6
:206FA000036882795A70038902681B0A937003680289DA70837983B00446002B00F04081EE
:206FC0000368827A1D1D62B16FF00301C91A00F10B0313F8012B05F8012BA67A6A189642DE
:206FE000F7D8E37C9807C3F340010CD594F86A3000932A4604F16B0300210120FFF746FFE3
:20700000E37C054401211A0709D5236C0093636C2A460320FFF73AFFE37C05440321DE0644
:207020000BD594F8243000932A4604F125030420FFF72CFFE37C05440421980607D50023C1
:207040002A460520FFF7C2FEE37C054405215A0607D5636E2A460620FFF7B8FEE37C054420
:207060000621DB0907D02A46B4F850300720FFF7ADFE07210544237DDE070BD5A36C2F2294
:20708000CDE900320820E36C2A46FFF70FFF237D0544082118070BD5E36D2F22CDE9003283
:2070A0000B20236E2A46FFF701FF237D05440B21DA0607D5A38B2A460C20FFF787FE237DF8
:2070C00005440C215E0607D5236A2A460E20FFF77DFE237D05440E21DB090CD0D4F89430F6
:2070E0002622CDE900320F202A46D4F89830FFF7DDFE0F210544637D980708D5B4F8683043
:207100002A461120FFF762FE637D05441121DA060BD5636D2622CDE900321420A36D2A46A9
:20712000FFF7C4FE637D05441421DB091AD0636F94F878201B01002A40F08580B4F87A20B4
:2071400000201209461C52088446B0B2FAD118B10CF00F0C43EA0C032A461720FFF736FE54
:2071600017210544A37D1E071BD5D4F8803094F884201B01002A69D1B4F8862000201209A0
:20718000461C52088446B0B2FAD118B10CF00F0C43EA0C032A461B20FFF718FEA37D054400
:2071A0001B21D80607D52A46D4F88C301C20FFF70DFE1C210544E37D1A0709D5236B00939E
:2071C000636B2A462320FFF761FEE37D05442321DB0908D0A36B00932A46E36B2720FFF794
:2071E00055FE27210544A37EDB0611D42368EB1A3E2B18DCB4F8A420E2B9D4F8A8102846DA
:207200000EF0A8FFB4F8A400ED1B284403B0F0BDD4F890302A463C20FFF7D8FD23680544AE
:20722000EB1A3E2BE6DD0B4B0B4A002020601A6003B0F0BDFF2305F8013BB4F8A420DCE76A
:20724000042003B0F0BD43F0080377E743F0080392E700BFD400002000670100032A40F2DD
:20726000CC802DE9F04704460D4682B0002191460430A8220EF088FF256095F800804FEA60
:20728000981884F804802B78C3F3011363712A7802F00F02A2726B78A371A978EB78B8F120
:2072A000010F43EA012323817CD1082A00F2AC80291D8E1805EB090A564576D804F10B0054
:2072C0000EF03AFF00275645C4F81370C4F8177080F0A580337803F0F002F02A00F08781FC
:2072E000711C8A454FEA131003F00F035DD90D285FD00E2868D00D2B62D00E2B70D0CE1800
:20730000B24552D307443C2F4FD804EBD70C07F007029CF8130008FA02F20243781E8CF8A6
:20732000132002463B2A74D8DFE812F07B0073008600890094009700A400B30073007300F3
:20734000BD00C7007300D500E2007300EC0073007300FB00730073000501730073007300FA
:2073600024014501730073007300730073007300690073007300730069007300730073006C
:207380007300730073007300730073007300730073007300730073007300730073007300BD
:2073A00073005301A04BA14A1A60802002B0BDE8F0877078B11C0D308A45F6D90D2B9CD113
:2073C00011F8013B0D339AE77078B21C92454FEA0020EAD9B27802F20D121044F11CEBE78E
:2073E0000E4616F8013BB2454FEA0323DDD94A7802F20D121344023181E7802070478A4BF0
:207400008B4A1A60A520D1E7874B8A4A1A608020CCE7FB0700F10281B2453FF65BAF002061
:20742000C4E7082B28BF08231A4684F86A3004F16B000EF081FEEFE7C4E91031ECE7082B3F
:2074400028BF08231A4684F8243004F125000EF073FEE1E784F89C80DEE74BB1013BC81824
:207460000139002311F8012F884242EA0323F9D16366D1E753B1013BC8180139002311F889
:20748000012F884242EA0323F9D19BB2A4F85030C2E72F200A46009004F1480104F14C0016
:2074A000FFF7DAFCB8E72F200A46009004F15C0104F16000FFF7D0FCAEE753B1013BC81814
:2074C0000139002311F8012F884242EA0323F9D19BB2A383A0E74BB1013BC81801390023C1
:2074E00011F8012F884242EA0323F9D1236293E726200A46009004F1940104F19800FFF73B
:20750000ABFC89E753B1013BC8180139002311F8012F884242EA0323F9D19BB2A4F8683037
:207520007AE726200A46009004F1540104F15800FFF792FC70E7002B6CD0013B0B44002040
:20754000013911F8012F8B4242EA0020F9D100F00703102120F00F02994089B202FA03F383
:20756000C0F3C002000984F87820A4F87A10E367606751E7002B49D0013B0B4400200139E1
:2075800011F8012F8B4242EA0020F9D100F00703102120F00F02994089B202FA03F3C0F3CA
:2075A000C002000984F88420A4F88610C4F88830C4F8800030E74BB1013BC8180139002372
:2075C00011F8012F884242EA0323F9D1C4F88C3022E74BB1013BC8180139002311F8012F5D
:2075E000884242EA0323F9D1C4F8903014E70136751BA9EB0505ADB2402D88BF4025002031
:20760000C4F8A860A4F8A4507055CFE6184610211A46C7E7184610211A46A4E7024B064AE8
:207620001A608220C2E600BFD400002030670100706701004867010098670100FF299ABF32
:20764000817101200020704710B5082A28BF0822144682720B300EF06FFD204610BD00BF53
:20766000037D818343F0100303750120704700BF037DC3F3C0021B0702D5036E0B60C26D35
:20768000104670470B782F2B10B5044603D111F8013F2F2BFBD0216608460EF07DFD237DC2
:2076A000E06543F00803237510BD00BFC37C416643F04003C3740120704700BF30B40446CB
:2076C000407DC0110FD009B1656F0D6012B194F87810117013B1B4F87A201A80029B13B1E5
:2076E000029AE36F136030BC704700BF10B4A3F11004B4F5FE6F02D8B1F5801F03D3002030
:207700005DF8044B7047447D4167003A64F07F0118BF012280F87820A0F87A3041755DF840
:20772000044B0120704700BF11B1D0F8A8300B60D0F8A83013B1B0F8A4007047184670471A
:207740000346402A28BF40221046A3F8A420C3F8A81070472DE9F04105F05CFAFEF792FA3B
:2077600007F002FF05F068FB00216648664FDFF8EC81664D664C674E05F03CFB00F0B4FB0C
:207780000CF0FCFD09F0C6FC05F04CFA05F002FC614B1B6898477B689847D8F80430984758
:2077A000A979EB79226803EB0123022A338025DC5A4B29686A6819605A605948002105F0D5
:2077C00019FB4FF0FF300BF025F82368022B054600F3818005F048FAFEF7BCFD5148FEF7A5
:2077E000E7F80CF0F5FD05F02DFB04460CF0F8FD14F0FF0FF7D105F03DFAF4E74A4A4B495B
:207800004B4805F053FA4B4805F0B6FB2368022BCEDD454A4549464805F048FA464B4748F5
:20782000196805F043FA2368022BC1DD3E4A3F493F4805F03BFAD8F80010414805F036FAF0
:207840002368022BB4DD384A3849394805F02EFA39683C4805F02AFA2368022BA8DD324A47
:207860003249334805F022FA37484AF6CD3105F01DFA2368022B9BDD2B4A2C492C4805F0B5
:2078800015FA32481A2105F011FA2368022B8FDD254A2649264805F009FA31882C4805F09A
:2078A00005FA2368022B83DD1F4A2049204805F0FDF9284805F0FAF92368022B7FF778AFDF
:2078C000284601F0DDFA2368022B7FF771AF0A2005F050FB6CE7144A1449154805F0E6F97B
:2078E0001D4805F0E3F92368022B7FF773AF284601F0B6FA2368022B7FF76CAF0A2005F08B
:2079000039FB67E70C010020C4680100AC2A00202C010020462A00208C690100B02E0020C4
